:020000022000DC
:1060000000000420DDF303001DF403001FF403006F
:1060100021F4030023F4030025F403000000000032
:1060200000000000000000000000000059F3030021
:1060300029F403000000000079F303002DF40300AD
:106040006DF603002FF403002FF403002FF4030078
:106050002FF403002FF4030059CC03002FF40300A6
:106060002FF403002FF403002FF403002FF4030098
:106070002FF403002FF403002FF403002FF4030088
:106080002FF40300E5F003002FF403002FF40300C6
:106090002FF403002FF40300118C03002FF40300EE
:1060A0002FF403002FF403002FF403002FF4030058
:1060B0002FF403002FF40300000000000000000094
:1060C0002FF403002FF403002FF40300D91A040067
:1060D0002FF403002FF403002FF4030089C90300F9
:1060E0002FF403002FF403002FF40300000000003E
:1060F000000000002FF4030000000000511B04000A
:10610000000000000000000000000000000000008F
:10611000000000000000000000000000000000007F
:10612000000000000000000000000000000000006F
:10613000000000000000000000000000000000005F
:10614000000000000000000000000000000000004F
:10615000000000000000000000000000000000003F
:10616000000000000000000000000000000000002F
:10617000000000000000000000000000000000001F
:10618000000000000000000000000000000000000F
:1061900000000000000000000000000000000000FF
:1061A00000000000000000000000000000000000EF
:1061B00000000000000000000000000000000000DF
:1061C00000000000000000000000000000000000CF
:1061D00000000000000000000000000000000000BF
:1061E00000000000000000000000000000000000AF
:1061F000000000000000000000000000000000009F
:10620000F1EE103A43F08073E1EE103A704700BFB0
:1062100010B5054C237833B9044B13B10448AFF3E0
:1062200000800123237010BD4064002000000000A6
:10623000AC74040008B5034B1BB103490348AFF32A
:10624000008008BD0000000044640020AC7404001D
:10625000154B002B08BF134B9D46A3F5803A002138
:106260008B460F461348144A121A1CF028FC0F4B99
:10627000002B00D098470E4B002B00D098470020F1
:10628000002104000D000D48002802D00C48AFF397
:1062900000801CF08DFB2000290019F0EDF81CF0A7
:1062A00061FB00BF000008000000042000000000A7
:1062B00000000000406400208CA5002000000000C9
:1062C00000000000014B01221A707047D8650020C1
:1062D000014B00221A707047D865002000B587B0C6
:1062E00068461B4916F0FAFC0A2203A8194914F063
:1062F00055F803A9684616F01FFD03A816F014FD13
:10630000684616F05DFD14481DF024FA5B201DF070
:1063100039FA124814F026F81DF01CFA90211048A2
:106320001DF018FA5D201DF02DFA0E481DF012FA2E
:106330000D481DF00FFA00990C481DF00BFA0A20C9
:106340001DF020FA684616F0EFFC07B05DF804FB7C
:106350005C5F04000C650020545804005858040089
:1063600064580400BC580400685804006C580400C9
:1063700070B50D4E0D4D0E4C304612F06FFD2A4695
:1063800030460C491BF024FC20464FF4807112F07B
:1063900043FF2A46204608491BF01AFC0748BDE87F
:1063A000704012F0E7BD00BF5C6400200060002078
:1063B000FC64002035650200B5970300BC64002032
:1063C000F0B54D4C4D4D4E4EC5B02046042112F057
:1063D0009BF91023009320460222832112F080F9BA
:1063E00000222046012112F0C5F92046082112F0B2
:1063F0007BFB04A84FF4807200211CF060FB414B32
:10640000414A19681268080E0390C1F307400290D0
:10641000C2F30723C1F30720C9B243F0C003D2B2CD
:10642000CDE9001004A839491DF03CFA04F52C7799
:1064300004A9204612F030FB3846354911F042FEDF
:106440003846344911F040FE28460B22324912F0FA
:10645000D3FD28460722314912F0C2FD24A3D3E917
:1064600000232F4904A81DF01DFA04A81DF061FAAD
:1064700004A9C2B2284612F0BBFD052229492846CC
:1064800012F0B2FD284612F0BBFD274812F00AFDBB
:10649000304604F5007413F0C1F901223046234957
:1064A00012F0FEFE02F082F82046062110F062FC97
:1064B0001F49204610F008FC204610F015FC20462D
:1064C00010F040FC2046012110F088FCF422204608
:1064D000202110F07FFC20461E2110F079FC204680
:1064E000002110F0D7FC45B0F0BD00BFAFF3008035
:1064F0007B14AE47E17A843F64890020BC640020AD
:10650000FC640020A4000010A80000107C580400C7
:10651000C5620200D16202009C580400A858040021
:10652000B0580400B45804005C640020DD6202002E
:10653000D869002010B5044B044640F8103B10F019
:1065400089FD204610BD00BF746D040070B5BC48C5
:10655000BC4CBD4EBD4D8EB01DF0FCF85B201DF057
:1065600011F9BB4813F0FEFE1DF0F4F86D21B94897
:106570001DF0F0F85D201DF005F9B7481DF0EAF8B0
:10658000B6481DF0E7F862782178B5481DF0E2F8CA
:106590000A201DF0F7F8AA481DF0DCF85B201DF07A
:1065A000F1F8AB4813F0DEFE1DF0D4F87221A948D3
:1065B0001DF0D0F85D201DF0E5F8A7481DF0CAF8E1
:1065C000A6481DF0C7F8607A0490207A0390E0791D
:1065D0000290A079019060792379E278A178009007
:1065E000A0481DF0B7F80A201DF0CCF894481DF023
:1065F000B1F85B201DF0C6F8954813F0B3FE1DF00E
:10660000A9F8772193481DF0A5F85D201DF0BAF890
:1066100091481DF09FF891481DF09CF8607C049013
:10662000207C0390E07B0290A07B0190607B237B29
:10663000E27AA17A00908C481DF08CF80A201DF0B7
:10664000A1F87F481DF086F85B201DF09BF880487C
:1066500013F088FE1DF07EF880217E481DF07AF848
:106660005D201DF08FF87C481DF074F87B481DF00C
:1066700071F8E07D0290A07D0190607D009094F81B
:1066800021000C9094F820000B90E07F0A90A07FEE
:106690000990607F0890207F0790E07E0690A07EA2
:1066A0000590607E0490207E237DE27CA17C039097
:1066B0006E481DF04FF80A201DF064F860481DF088
:1066C00049F85B201DF05EF8614813F04BFE1DF0A9
:1066D00041F881215F481DF03DF85D201DF052F822
:1066E0005D481DF037F85D481DF034F8616A604878
:1066F0001DF030F80A201DF045F851481DF02AF829
:106700005B201DF03FF8524813F02CFE1DF022F8DC
:106710008A2150481DF01EF85D201DF033F84E48C8
:106720001DF018F84D481DF015F894F82D00029052
:1067300094F82C00019094F82B00009094F8370006
:106740000C9094F836000B9094F835000A9094F869
:106750003400099094F83300089094F832000790C0
:1067600094F83100069094F83000059094F82F00CA
:10677000049094F82E0094F82A3094F8292094F884
:10678000281003903B481CF0E5FF0A201CF0FAFF9C
:106790002B481CF0DFFF5B201CF0F4FF2C4813F0AB
:1067A000E1FD1CF0D7FF93212A481CF0D3FF5D20A8
:1067B0001CF0E8FF28481CF0CDFF28481CF0CAFF59
:1067C00094F83D00029094F83C00019094F83B004E
:1067D000009094F847000C9094F846000B9094F8C1
:1067E00045000A9094F84400099094F843000890FA
:1067F00094F84200079094F84100069094F8400005
:10680000059094F83F00049094F83E0094F83A30D4
:1068100094F8392094F83810039017481CF09AFF28
:106820000A201CF0AFFF06481CF094FF5B201CF010
:10683000A9FF074813F096FD1CF08CFF94211DE082
:106840005458040094600020FC58040004590400CB
:106850004C59040064580400C85C040068580400E3
:106860005C59040074590400AC590400E459040054
:10687000445A0400585A0400B85A0400CF481CF087
:1068800069FF5D201CF07EFFCD481CF063FFCD4802
:106890001CF060FF94F84810CB48002914BF314623
:1068A00029461CF057FF0A201CF06CFFC7481CF05B
:1068B00051FF5B201CF066FFC54813F053FD1CF030
:1068C00049FF9521BD481CF045FF5D201CF05AFF93
:1068D000BB481CF03FFFBB481CF03CFF94F849103C
:1068E000BC48002914BF314629461CF033FF0A205A
:1068F0001CF048FFB5481CF02DFF5B201CF042FF48
:10690000B34813F02FFD1CF025FF9621AB481CF077
:1069100021FF5D201CF036FFA9481CF01BFFA94891
:106920001CF018FFAC4AAD4B94F84A10AC48002953
:1069300014BF114619461CF00DFF0A201CF022FF5F
:10694000A2481CF007FF5B201CF01CFFA04813F0BE
:1069500009FD1CF0FFFE972198481CF0FBFE5D200E
:106960001CF010FF96481CF0F5FE96481CF0F2FE55
:1069700094F84B109B48002914BF314629461CF05F
:10698000E9FE0A201CF0FEFE90481CF0E3FE5B20AE
:106990001CF0F8FE8E4813F0E5FC1CF0DBFE98219D
:1069A00086481CF0D7FE5D201CF0ECFE84481CF0ED
:1069B000D1FE84481CF0CEFEE16C8B481CF0CAFE70
:1069C0000A201CF0DFFE81481CF0C4FE5B201CF096
:1069D000D9FE7F4813F0C6FC1CF0BCFE9921774815
:1069E0001CF0B8FE5D201CF0CDFE75481CF0B2FE18
:1069F00074481CF0AFFE94F850107C481CF0AAFEBE
:106A00000A201CF0BFFE71481CF0A4FE5B201CF0A5
:106A1000B9FE6F4813F0A6FC1CF09CFE9A21674853
:106A20001CF098FE5D201CF0ADFE65481CF092FE47
:106A300064481CF08FFE94F851106D481CF08AFEDB
:106A40000A201CF09FFE61481CF084FE5B201CF0B5
:106A500099FE5F4813F086FC1CF07CFE9B21574892
:106A60001CF078FE5D201CF08DFE55481CF072FE77
:106A700054481CF06FFE94F852105E481CF06AFEF9
:106A80000A201CF07FFE51481CF064FE5B201CF0C5
:106A900079FE4F4813F066FC1CF05CFE9C214748D1
:106AA0001CF058FE5D201CF06DFE45481CF052FEA7
:106AB00044481CF04FFE94F853104F481CF04AFE17
:106AC0000A201CF05FFE41481CF044FE5B201CF0D5
:106AD00059FE3F4813F046FC1CF03CFE9D21374810
:106AE0001CF038FE5D201CF04DFE35481CF032FED7
:106AF00034481CF02FFE94F8541040481CF02AFE35
:106B00000A201CF03FFE31481CF024FE5B201CF0E4
:106B100039FE2F4813F026FC1CF01CFE9E2127484E
:106B20001CF018FE5D201CF02DFE25481CF012FE06
:106B300024481CF00FFE94F855103148002914BF6A
:106B4000314629461CF006FE0A201CF01BFE1F4899
:106B50001CF000FE5B201CF015FE1D4813F002FC2B
:106B60001CF0F8FD9F2115481CF0F4FD5D201CF081
:106B700009FE13481CF0EEFD12481CF0EBFD94F8E2
:106B8000561020481CF0E6FD0A201CF0FBFD0F48C3
:106B90001CF0E0FD5B201CF0F5FD0D4813F0E2FB5E
:106BA0001CF0D8FDA02105481CF0D4FD5D201CF090
:106BB000E9FD03481CF0CEFD26E000BF6458040048
:106BC000C85C040068580400185B040054580400B2
:106BD0004C590400245B04001059040018590400A7
:106BE000305B0400405B0400545B0400685B0400FD
:106BF0007C5B04008C5B0400985B0400A85B0400D1
:106C0000B85B0400CC5B04009C481CF0A3FD9C4ACC
:106C10009C4B94F857109C48002914BF1146194604
:106C20001CF098FD0A201CF0ADFD98481CF092FD68
:106C30005B201CF0A7FD964813F094FB1CF08AFD26
:106C4000A12194481CF086FD5D201CF09BFD92481C
:106C50001CF080FD89481CF07DFD94F858108F4889
:106C60001CF078FD0A201CF08DFD88481CF072FD98
:106C70005B201CF087FD864813F074FB1CF06AFD56
:106C8000A22184481CF066FD5D201CF07BFD82483B
:106C90001CF060FD79481CF05DFD814A814B94F841
:106CA00059108148002914BF114619461CF052FDA5
:106CB0000A201CF067FD75481CF04CFD5B201CF0A1
:106CC00061FD734813F04EFB1CF044FDA321714895
:106CD0001CF040FD5D201CF055FD6F481CF03AFD96
:106CE00066481CF037FDE16D70481CF033FD0A204A
:106CF0001CF048FD65481CF02DFD5B201CF042FD9A
:106D0000634813F02FFB1CF025FDA42161481CF003
:106D100021FD5D201CF036FD5F481CF01BFD57482F
:106D20001CF018FD94F8601061481CF013FD0A2057
:106D30001CF028FD55481CF00DFD5B201CF022FDC9
:106D4000534813F00FFB1CF005FDA52151481CF022
:106D500001FD5D201CF016FD4F481CF0FBFC474870
:106D60001CF0F8FC94F8611052481CF0F3FC0A2067
:106D70001CF008FD45481CF0EDFC5B201CF002FDFA
:106D8000434813F0EFFA1CF0E5FCA62141481CF043
:106D9000E1FC5D201CF0F6FC3F481CF0DBFC3748B2
:106DA0001CF0D8FC94F8621043481CF0D3FC0A2075
:106DB0001CF0E8FC35481CF0CDFC5B201CF0E2FC2C
:106DC000334813F0CFFA1CF0C5FCA72131481CF062
:106DD000C1FC5D201CF0D6FC2F481CF0BBFC2748F2
:106DE0001CF0B8FC94F8631034481CF0B3FC0A2083
:106DF0001CF0C8FC25481CF0ADFC5B201CF0C2FC5C
:106E0000234813F0AFFA1CF0A5FCA82121481CF080
:106E1000A1FC5D201CF0B6FC1F481CF09BFC174831
:106E20001CF098FC94F8641025481CF093FC0A2090
:106E30001CF0A8FC15481CF08DFC5B201CF0A2FC8B
:106E4000134813F08FFA1CF085FCA92111481CF09F
:106E500081FC5D201CF096FC0F481CF07BFC074871
:106E60001CF078FCB4F8661016481CF073FC0A207D
:106E70000EB0BDE870401CF085BC00BF685804002F
:106E8000205904002C590400DC5B04005458040011
:106E90004C59040064580400C85C0400EC5B040016
:106EA0003859040040590400FC5B0400085C0400ED
:106EB000205C0400345C04004C5C04005C5C040056
:106EC0006C5C0400805C0400014902480AF078BB55
:106ED000A4780020DC65002008B528480FF0DCFC11
:106EE0000022274927480AF073FC26480AF0FAFDD9
:106EF00058B16C22244923480AF056FD21480AF073
:106F0000ADFDBDE80840FFF721BB20481CF022FC86
:106F10005B201CF037FC1E4813F024FA1CF01AFC0E
:106F200025211C481CF016FC5D201CF02BFC1A4887
:106F30001CF010FC19481CF00DFC19481CF00AFC50
:106F40000A201CF01FFC642015F054FF0B480AF0C7
:106F500085F901220A490B480AF03AFC00B908BD3C
:106F60006C22094907480AF039FA06480AF0B0FAD3
:106F70000448BDE808400AF071BD00BFA4780020B5
:106F8000F8580400DC65002094600020D05804000C
:106F90004C59040064580400BC5C040068580400A8
:106FA000D458040010B50022474948480AF010FCA4
:106FB00046480AF097FD002846D06C2244494348D1
:106FC0000AF0F2FC41480AF049FD6C224149404870
:106FD0001BF042FD20B90124FFF7B8FA204610BD8E
:106FE0003D481CF0B7FB5B201CF0CCFB3B4813F08A
:106FF000B9F91CF0AFFB442139481CF0ABFB5D2014
:107000001CF0C0FB37481CF0A5FB37481CF0A2FB66
:1070100036481CF09FFB0A201CF0B4FB642015F0DE
:10702000E9FE294932480AF0BFF9012226492748DA
:107030000AF0CEFB044600283DD124480AF00EFD9C
:10704000FFF784FA204610BD23481CF083FB5B2029
:107050001CF098FB214813F085F91CF07BFB3C21C8
:107060001F481CF077FB5D201CF08CFB1D481CF0BA
:1070700071FB1D481CF06EFB1E481CF06BFB0A20C8
:107080001CF080FB642015F0B5FE19480AF0E6F804
:1070900001220D490D480AF09BFB00288DD06C227F
:1070A0000C490A480AF09AF908480AF011FA074808
:1070B0000AF0D4FC81E76C22064904480AF08EF9F4
:1070C00002480AF005FAB8E7F8580400DC65002029
:1070D0000460002094600020D05804004C59040043
:1070E00064580400D85C040068580400945C0400F0
:1070F000A4780020D4580400044B186820B1002361
:107100001A46194615F054BF704700BF7469002035
:1071100010B5044619481CF01DFB5B201CF032FB27
:10712000174813F01FF91CF015FB40F25D111548CC
:107130001CF010FB5D201CF025FB13481CF00AFB23
:1071400012481CF007FB124B1248195D1CF002FBA1
:107150000A201CF017FB104A104B92F856205A7167
:107160000022184611461A7102F00AFF0C4B0A2140
:107170001868BDE8104016F09BBB00BF54580400CF
:10718000345F040064580400E85F04006858040099
:10719000605F0400445F0400946000208860002069
:1071A0007469002008B50A4B0A4CDD6E00212320CB
:1071B00019F01EF84FF0FF31206816F079FB012816
:1071C000F4D10146232019F013F8A847EEE700BFD9
:1071D0008C6404007469002010B515481CF0BAFADC
:1071E0005B201CF0CFFA134813F0BCF81CF0B2FA85
:1071F0004FF4CF7110481CF0ADFA5D201CF0C2FABC
:107200000E481CF0A7FA0E481CF0A4FA0D481CF01A
:10721000A1FA0A201CF0B6FA0B4B0A21186816F0E6
:1072200047FB0A4B00209B6BBDE81040184700BF8E
:1072300054580400345F040064580400705F040074
:1072400068580400FC5C0400746900208C6404002D
:1072500010B515481CF07EFA5B201CF093FA134819
:1072600013F080F81CF076FA40F2BD1110481CF0C3
:1072700071FA5D201CF086FA0E481CF06BFA0E487D
:107280001CF068FA0D481CF065FA0A201CF07AFA26
:107290000B4B0A21186816F00BFB0A4B00209B6B66
:1072A000BDE81040184700BF54580400345F040084
:1072B000645804008C5F040068580400145D0400E6
:1072C000746900208C64040010B515481CF042FA63
:1072D0005B201CF057FA134813F044F81CF03AFAFC
:1072E00040F2C91110481CF035FA5D201CF04AFA32
:1072F0000E481CF02FFA0E481CF02CFA0D481CF01A
:1073000029FA0A201CF03EFA0B4B0A21186816F0E5
:10731000CFFA0A4B00209B6BBDE81040184700BF16
:1073200054580400345F0400645804007C5F040077
:1073300068580400085D0400746900208C6404002F
:10734000054B10B518680A2116F0B2FA034B00205D
:107350009B6BBDE810401847746900208C640400E2
:1073600030B52E4C94F8483083B093BB2C481CF0B9
:10737000F1F95B201CF006FA2A4812F0F3FF1CF02A
:10738000E9F940F20F1128481CF0E4F95D201CF0E7
:10739000F9F926481CF0DEF925481CF0DBF92548F0
:1073A0001CF0D8F90A201CF0EDF9234B94F8530097
:1073B00001251D7002F020FEE16C009500231F4A9C
:1073C0001F4818F04FFC1E4803B0BDE8304018F0CD
:1073D0005DBC02F059FE054611481CF0BBF95B206C
:1073E0001CF0D0F90F4812F0BDFF1CF0B3F940F2C9
:1073F0000B110D481CF0AEF95D201CF0C3F90B48D1
:107400001CF0A8F90A481CF0A5F929460D481CF003
:10741000A1F90A201CF0B6F9C7E700BF946000206C
:1074200054580400345F040064580400D05F040022
:1074300068580400285F040078690020A17C0200DD
:1074400080690020005F040030B5044683B06D48B9
:107450001CF080F95B201CF095F96B4812F082FF5C
:107460001CF078F94FF4927168481CF073F95D20B4
:107470001CF088F966481CF06DF966481CF06AF942
:10748000207AB4F9063022796179009062481CF0C4
:1074900061F90A201CF076F96379022B0ED0032BD8
:1074A0000AD12379012B3ED05C4B18680A2103B026
:1074B000BDE8304016F0FCB903B030BD584D22791C
:1074C000216858481BF0D7FA5749584A2B68207949
:1074D000087000241470002BE6D04A481CF03AF9DA
:1074E0005B201CF04FF9484812F03CFF1CF032F9C9
:1074F00040F24D1145481CF02DF95D201CF042F979
:1075000043481CF027F943481CF024F948481CF074
:1075100021F90A201CF036F9234622462146286824
:1075200015F046FDC0E723681878012847D023D31B
:107530000228B9D102F060FD32481CF00BF95B2043
:107540001CF020F9304812F00DFF1CF003F94FF445
:107550009D712E481CF0FEF85D201CF013F92C489C
:107560001CF0F8F82B481CF0F5F832481CF0F2F843
:107570000A201CF007F997E7002002F03DFD2148A2
:107580001CF0E8F85B201CF0FDF81F4812F0EAFE42
:107590001CF0E0F84FF498711C481CF0DBF85D20FB
:1075A0001CF0F0F81A481CF0D5F81A481CF0D2F874
:1075B00021481CF0CFF80A201CF0E4F874E702F030
:1075C0001BFD10481CF0C6F85B201CF0DBF80E48D1
:1075D00012F0C8FE1CF0BEF840F235110B481CF04A
:1075E000B9F85D201CF0CEF809481CF0B3F8094842
:1075F0001CF0B0F811481CF0ADF80A201CF0C2F8DD
:1076000052E700BF54580400345F0400645804007B
:10761000BC5F040068580400505E040074690020D8
:107620007C6900206C6700206967002000610020F1
:10763000EC5E0400CC5E04008C5E0400AC5E0400D2
:1076400000B51D4883B01CF085F85B201CF09AF84B
:107650001A4812F087FE1CF07DF84FF4D4711848D8
:107660001CF078F85D201CF08DF816481CF072F8BC
:1076700015481CF06FF815481CF06CF80A201CF037
:1076800081F80A2015F0B6FB114B124A1868002346
:10769000137018B11A46194615F08AFC0E4B0A21D0
:1076A000186816F005F90D4B9B6B0193002003B091
:1076B0005DF804EB184700BF54580400345F040021
:1076C00064580400645F040068580400F05C04001F
:1076D0007C69002000610020746900208C64040033
:1076E00000B583B048B90B4A0B4B1178DB6A0B48E5
:1076F000019303B05DF804EB1847094B0A211868A1
:1077000016F0D6F8044B9B6B0193002003B05DF894
:1077100004EB18476C6800208C640400706800203B
:10772000746900202DE9F04101218AB0232018F06E
:107730001FFD0021232018F05BFD03220021012002
:1077400015F0C2FBC34C00231A461946206015F001
:107750002FFC00F055FF002840F03981BE4D95F810
:107760005940002C40F09180BC48DFF86083BC4950
:10777000BC4ABD4FBD4EDFF858C3BD4BC0F800C07A
:10778000C0E90312C0E90167C361D8F80030984727
:10779000D8F830309847D8F81030E86D984795F809
:1077A00064E095F863C095F8622095F8613095F92A
:1077B0006010D8F820700092012641F28830CDE99F
:1077C00001CE0890224630460794CDE90544039443
:1077D0000496B84795F864C0B5F8660095F863302C
:1077E00095F8622095F86110D8F81C70CDF804C0A7
:1077F0000290099630460596CDE907440694CDE9F6
:1078000003440094B84704229A492F2015F01AF92E
:1078100099481BF09FFF5B201BF0B4FF974812F0C4
:10782000A1FD1BF097FFD42195481BF093FF5D202D
:107830001BF0A8FF93481BF08DFF93481BF08AFFB5
:1078400092481BF087FF0A201BF09CFF904B914948
:107850009148CDE900634FF48052234616F06CFB4B
:10786000002800F09380E96C8C4A8D4800962346EE
:1078700018F0F8F98A4818F009FA2046D8F8383094
:10788000984720460AB0BDE8F081A81C02F038F9FC
:1078900005F10A0002F03CF905F1120002F040F98E
:1078A00005F1280002F04AF905F1380002F054F918
:1078B000686A02F05FF97B497B4A95F8483003C952
:1078C0001060918006CA794802F0B0F90446002899
:1078D00040F09E8095F8540002F052F9002800F024
:1078E0001A81042263492F2015F0ACF862481BF07E
:1078F00031FF5B201BF046FF604812F033FD1BF0A8
:1079000029FFAB215E481BF025FF5D201BF03AFFED
:107910005C481BF01FFF5C481BF01CFF64481BF019
:1079200019FF0A201BF02EFF594B5A495A480125CE
:10793000CDE900534FF48052234616F0FDFA00289B
:1079400000F0C8804C481BF005FF5B201BF01AFFBD
:107950004A4812F007FD1BF0FDFEB32148481BF01A
:10796000F9FE5D201BF00EFF46481BF0F3FE464873
:107970001BF0F0FE4F481BF0EDFE0A201BF002FF4B
:1079800002F074FA4C4B20461D707BE74B481BF00D
:10799000E1FE5B201BF0F6FE384812F0E3FC1BF022
:1079A000D9FED72136481BF0D5FE5D201BF0EAFE3C
:1079B00034481BF0CFFE34481BF0CCFE40481BF08F
:1079C000C9FE0A201BF0DEFE6FF003005AE73B48B9
:1079D0001BF0C0FE5B201BF0D5FE284812F0C2FC55
:1079E0001BF0B8FE802126481BF0B4FE5D201BF082
:1079F000C9FE24481BF0AEFE23481BF0ABFE314805
:107A00001BF0A8FE0A201BF0BDFE4FF0FF3039E747
:107A10002A481BF09FFE5B201BF0B4FE174812F0B3
:107A2000A1FC1BF097FE9B2115481BF093FE5D20E7
:107A30001BF0A8FE13481BF08DFE13481BF08AFEB6
:107A400021481BF087FE0A201BF09CFE6FF001000E
:107A500018E700BF74690020946000204066002091
:107A6000C9720200417302004176020051720200A5
:107A7000E1760200F970020054580400345F0400FB
:107A800064580400B05F040068580400205E0400DD
:107A900070690020DC5D0400A5710200A17C020079
:107AA00080690020E85C04006066002070600020AF
:107AB000C45D0400045E040068670020D058040020
:107AC000345E04004C5D0400685D04008C640400B6
:107AD000D971020020481BF03DFE5B201BF052FED6
:107AE0001E4812F03FFC1BF035FEAE211C481BF077
:107AF00031FE5D201BF046FE1A481BF02BFE1A4893
:107B00001BF028FE19481BF025FE0A201BF03AFE48
:107B10006FF00300B6E610481BF01CFE5B201BF064
:107B200031FE0E4812F01EFC1BF014FEA3210C487F
:107B30001BF010FE5D201BF025FE0A481BF00AFE1C
:107B400009481BF007FE0A481BF004FE0A201BF040
:107B500019FE6FF0020095E6D0580400345F04006F
:107B600064580400B05F040068580400E45D040039
:107B7000885D040038B5264C94F859304BB302F0B8
:107B8000F1F901282CD023481BF0E4FD5B201BF009
:107B9000F9FD214812F0E6FB1BF0DCFD4FF4BA7151
:107BA0001E481BF0D7FD5D201BF0ECFD1C481BF0B0
:107BB000D1FD1C481BF0CEFD1B481BF0CBFD0A205D
:107BC0001BF0E0FD194B0A21186815F071FE00202A
:107BD00038BD164B0A21186815F06AFE012038BD21
:107BE000134A144B144894F85710186040F20525B6
:107BF000104695806F241C7102F0C2F90B4B0446AD
:107C00000A21186815F054FEB4FA84F0400938BD12
:107C10009460002054580400345F04006458040049
:107C20009C5F040068580400205D04007469002013
:107C3000886000206866002048656C6C30B5124B87
:107C4000124C134A134919606F20052183B0187133
:107C50001170236B9847104BE56B93F8621000236B
:107C60000D3100930A22C9B20320A8470121242024
:107C700018F0BEFA236C9847084B18680A2103B025
:107C8000BDE8304015F014BE706800208C6404001C
:107C90006C68002006656C6C94600020746900209C
:107CA00008B50121242018F0A3FA054A054B1068F5
:107CB00001221A700021BDE8084015F03BBC00BF4E
:107CC0007C690020006100202DE9F04B0322002197
:107CD000012015F0F9F8DFF80883DFF80893C8F8F9
:107CE0000000002319461A4615F062F901212320ED
:107CF00018F03EFA0021232018F07AFA01212420FE
:107D000018F036FA0121242018F072FA4FF4E1310C
:107D1000484612F081FC15F061F841F287360027E1
:107D20000446002519E015F059F88346BBEB040220
:107D30004FF0000C6CEB0503964277EB03034FF01A
:107D400064000FDB15F056F8232018F06DFAB0FA36
:107D500080F14909232018F04BFA484612F05EFCE6
:107D60000028E0D00021232018F042FA8E481BF0B2
:107D7000F1FC5B201BF006FD8C4812F0F3FA1BF0BF
:107D8000E9FC55218A481BF0E5FC5D201BF0FAFC5C
:107D900088481BF0DFFC88481BF0DCFC87481BF0A0
:107DA000D9FC0A201BF0EEFC7F481BF0D3FC5B20C3
:107DB0001BF0E8FC7D4812F0D5FA1BF0CBFC5621F5
:107DC0007B481BF0C7FC5D201BF0DCFC79481BF0F6
:107DD000C1FC79481BF0BEFC79481BF0BBFC0A20B3
:107DE0001BF0D0FC70481BF0B5FC5B201BF0CAFCFC
:107DF0006E4812F0B7FA1BF0ADFC57216C481BF02F
:107E0000A9FC5D201BF0BEFC6A481BF0A3FC6A487D
:107E10001BF0A0FC69481BF09DFC0A201BF0B2FC83
:107E2000FFF75AF8FEF7CCFA664B5F4893F85530E7
:107E3000002B6DD01BF08EFC5B201BF0A3FC5B487D
:107E400012F090FA1BF086FC622159481BF082FC6C
:107E50005D201BF097FC57481BF07CFC56481BF03C
:107E600079FC59481BF076FC0A201BF08BFCFFF7CD
:107E700059FC002873D04C484C4D4D4C534E1BF0D0
:107E800069FC5B201BF07EFC284612F06BFA1BF0AD
:107E900061FC682120461BF05DFC5D201BF072FC3C
:107EA00044481BF057FC44481BF054FC48481BF066
:107EB00051FC0A201BF066FC30461BF04BFC5B209B
:107EC0001BF060FC284612F04DFA1BF043FC6D21BC
:107ED00020461BF03FFC5D201BF054FC35481BF096
:107EE00039FC35481BF036FC3A481BF033FC0A20BD
:107EF0001BF048FC232018F097F9B0FA80F14909EB
:107F0000232018F075F941F2883014F073FFD3E79D
:107F10001BF020FC5B201BF035FC244812F022FAF9
:107F20001BF018FC7D2122481BF014FC5D201BF087
:107F300029FC20481BF00EFC1F481BF00BFC2648B8
:107F40001BF008FC0A201BF01DFC642014F052FFFB
:107F5000D8F800000A21BDE8F04B15F0A9BC124882
:107F60001BF0F8FB5B201BF00DFC104812F0FAF937
:107F70001BF0F0FB72210E481BF0ECFB5D201BF0A8
:107F800001FC0C481BF0E6FB0B481BF0E3FB13481D
:107F90001BF0E0FB0A201BF0F5FBD8F800000A21DB
:107FA000BDE8F04B15F084BC54580400D8600400C0
:107FB000645804000C60040068580400E860040081
:107FC000106104009460002030610400D058040067
:107FD0006061040074610400B061040098610400F1
:107FE0007C690020D08C00202DE9F047B84C00219E
:107FF000232018F0FDF820684FF0FF3115F058FCF1
:10800000012801D0BDE8F0870146232018F0F0F8E0
:108010004FF4FA7014F0EEFEAE4B1B78012B3ED0FD
:10802000C0F0A480022B40F08280AB48AB4D1BF027
:1080300091FB5B201BF0A6FBA94812F093F91BF003
:1080400089FBBC21A7481BF085FB5D201BF09AFB38
:10805000A5481BF07FFBA5481BF07CFBA4481BF048
:1080600079FB0A201BF08EFB642014F0C3FE294626
:108070006C22A0480FF0AEFA29466C229D480FF002
:10808000BBFB95F8553023B19B4B1B780BB9FFF721
:1080900049FB20680A21BDE8F04715F009BC8E486D
:1080A0001BF058FB5B201BF06DFB8D4812F05AF95A
:1080B0001BF050FBA5218B481BF04CFB5D201BF0F7
:1080C00061FB89481BF046FB88481BF043FB8B484B
:1080D0001BF040FB0A201BF055FB804B93F85930F6
:1080E000002B00F09680FFF745FD002800F0D180BE
:1080F00079481BF02FFB5B201BF044FB784812F003
:1081000031F91BF027FBAC2176481BF023FB5D20E7
:108110001BF038FB74481BF01DFB74481BF01AFB66
:1081200077481BF017FB0A201BF02CFBB1E77548C2
:108130001BF010FB5B201BF025FB694812F012F9C5
:108140001BF008FBCA2167481BF004FB5D201BF0F5
:1081500019FB65481BF0FEFA64481BF0FBFA6A48FD
:108160001BF0F8FA0A201BF00DFB92E75A48674E05
:108170001BF0F0FA5B201BF005FB594812F0F2F8F7
:108180001BF0E8FA962157481BF0E4FA5D201BF03B
:10819000F9FA55481BF0DEFA54481BF0DBFA5C484C
:1081A0001BF0D8FA0A201BF0EDFA33781F2B51D8B8
:1081B000584F3B78002B3FF46CAFDFF81CA1DFF881
:1081C0002091DFF82081354650461BF0C3FA5B2032
:1081D0001BF0D8FA484612F0C5F81BF0BBFA9F21F5
:1081E00040461BF0B7FA5D201BF0CCFA3E481BF06E
:1081F000B1FA3E481BF0AEFA15F8011B46481BF0D9
:10820000A9FA0A201BF0BEFA3A78AB1B9A42DBDCD3
:108210003FE7FFF713FD30481BF09CFA5B201BF093
:10822000B1FA2F4812F09EF81BF094FAB7212D48AE
:108230001BF090FA5D201BF0A5FA2B481BF08AFA80
:108240002A481BF087FA35481BF084FA0A201BF0F5
:1082500099FA1EE720481BF07DFA5B201BF092FA8A
:108260001F4812F07FF81BF075FA99211D481BF08A
:1082700071FA5D201BF086FA1B481BF06BFA1B4855
:108280001BF068FA30461BF0EDFA0A201BF07AFA70
:10829000FFE611481BF05EFA5B201BF073FA1048F2
:1082A00012F060F81BF056FAB0210E481BF052FA9B
:1082B0005D201BF067FA0C481BF04CFA0B481BF0D2
:1082C00049FA17481BF046FA0A201BF05BFAE0E671
:1082D0007C69002000610020545804009460002054
:1082E000D860040064580400046004006858040066
:1082F0009C600400886900206867002038600400E2
:1083000048600400D0580400B86004006C67002086
:108310001460040069670020346004008860040071
:108320006C60040010B5054C204617F093FC204605
:10833000034A0449BDE8104019F04ABC8069002096
:108340000060002005FC030070B5724816461C460C
:108350000D461BF0FFF95B201BF014FA6E4812F07B
:1083600001F81BF0F7F936216C481BF0F3F95D209A
:108370001BF008FA6A481BF0EDF96A481BF0EAF9AD
:1083800069481BF0E7F90A201BF0FCF94FF47A70FA
:1083900014F030FD281D65490FF01CFF30B36C2C24
:1083A00025D1328845F2AA539A4241D060481BF049
:1083B000D1F95B201BF0E6F9574811F0D3FF1BF011
:1083C000C9F9462155481BF0C5F95D201BF0DAF9C3
:1083D00053481BF0BFF953481BF0BCF955481BF03C
:1083E000B9F90A20BDE870401BF0CCB970BD504807
:1083F0001BF0B0F95B201BF0C5F9474811F0B2FF44
:108400001BF0A8F93F2145481BF0A4F95D201BF0A3
:10841000B9F943481BF09EF942481BF09BF92146ED
:1084200045481BF097F90A20BDE870401BF0AAB937
:10843000424D3146224628461AF01DFBFEF7B2FD9A
:10844000294622463E480FF0C5F8294622463C48B8
:108450000FF0D2F995F8685065BB3A4C2368002BB1
:10846000C4D0394B2B4802221A701BF073F95B20E1
:108470001BF088F9284811F075FF1BF06BF961219A
:1084800026481BF067F95D201BF07CF924481BF09F
:1084900061F924481BF05EF92C481BF05BF90A20B7
:1084A0001BF070F92B462A4629462068BDE870402B
:1084B00014F07EBD17481BF04DF95B201BF062F9EC
:1084C000154811F04FFF1BF045F9582113481BF0D8
:1084D00041F95D201BF056F911481BF03BF911489A
:1084E0001BF038F91A481BF035F90A201BF04AF93D
:1084F0004FF47A7014F07EFCBFF34F8F1549164B82
:10850000CA6802F4E0621343CB60BFF34F8F00BF31
:10851000FDE700BF54580400E461040064580400FF
:108520008462040068580400046204008C6900201E
:10853000D0580400406204001862040094600020D7
:10854000886900207C69002000610020EC5E040046
:108550007462040000ED00E00400FA0530B583B059
:108560006C4620464FF2A0010FF006FE0B4D0C4862
:1085700094E806000FF0E6FD20464FF2A1010FF04F
:10858000FBFD94E8060028460EF090FF2846054AB9
:10859000054919F01DFB03B030BD00BF88690020FC
:1085A000D8690020006000205570030010B5104C01
:1085B00010480FF0A9FD20461A210EF0C9FF112224
:1085C000114620460EF0DCFF20466D210EF0C6FF5E
:1085D0002046012208490EF0D9FF20460EF042FD48
:1085E00020466C220549BDE810400EF0F3BF00BFE5
:1085F00088690020D8690020498302009460002027
:1086000030B51E4B26212A2459609C602B202D2238
:108610002F252E212C2483B0D8601A615D619961C9
:10862000DC6101212720252202250024C3E908025C
:1086300083F8281083F8291083F82C101D6083F824
:108640002A4000F063F800F0F1F802A92A4621F868
:10865000024D4FF4E86000F0BFFABDF8063042F278
:108660001442934206D044F23440181A18BF012035
:1086700003B030BD204603B030BD00BFE869002024
:10868000054B002202204FF0FF311860C3E90811AA
:108690009A6283F82C207047E8690020024A034B55
:1086A00010681B685840704760000010640000109C
:1086B0000A4A0B4B1168C1711168090A817151880E
:1086C0004171D27802711A68C2701A68120A8270F7
:1086D0005A884270DB780370704700BF600000105A
:1086E0006400001000207047704700BF704700BF53
:1086F00038B5054CA4F1500554F8083D1B682046D8
:108700009847AC42F8D138BD746A0020704700BF6A
:1087100070B5214C257882B0ADB163786BB3A37886
:108720006BB3E3786BB323796BB363796BB3A379E2
:108730006BB3E3796BB3237A23B1637A092513B161
:1087400002B070BD082506464378144831610A46D8
:108750000121615500EBC50035703BB1002300934A
:1087600042F2107117F07EFA02B070BD009142F231
:10877000107117F077FA02B070BD0125E3E702250A
:10878000E1E70325DFE70425DDE70525DBE706252F
:10879000D9E70725D7E700BF186A0020246A002020
:1087A00010B5064C037804EBC304204617F0A2FA78
:1087B0002046BDE8104017F069BA00BF246A0020C7
:1087C0000078024B03EBC00017F094BA246A002033
:1087D00003780448044A00EBC30042F8231017F062
:1087E000B5BA00BF246A0020746A002014F0F6BAFB
:1087F00010B5044614F0F2FA001B10BD38B5084C51
:1088000004F150052046083417F024FAAC42F9D19F
:10881000044A05490020BDE8384019F0D9B900BF25
:10882000246A002000600020F186020070B5304C00
:10883000304E04F057FB0025A0683570012117F079
:1088400097FCA068012117F0D3FC2946A06917F016
:108850008FFC2946606917F08BFC6068012117F0D6
:1088600087FC6068012117F0C3FC94F82C3023BB0F
:10887000206A421C0CD0636A013309D0012117F031
:1088800077FC0121606A17F073FC94F82C500DB34B
:108890000121606817F06CFC0021606817F0A8FCEB
:1088A0000A2014F0A7FA6068012117F0A1FC142037
:1088B00014F0A0FA0023337070BD2946206A17F027
:1088C00057FC606A012117F053FC2946606A17F0D3
:1088D0008FFCDDE7606A431CDAD0236A0133D7D00E
:1088E000012117F085FC2946206A17F081FCCFE7AB
:1088F000E86900209C6A0020024B01460422586966
:1089000014F0A0B8E869002010B50B4C0121606894
:1089100017F02EFC0021606817F06AFC0A2014F0A2
:1089200069FA6068012117F063FC142014F062FA00
:10893000024B00221A7010BDE86900209C6A0020DA
:1089400038B5074D40F2E93403E014F053FA013C26
:1089500004D0A86917F068FC0128F6D038BD00BF24
:10896000E869002038B5174B174D00241C70FFF73D
:10897000BBFE2146A86817F03BFC144B144893E853
:10898000060018F0E1FDC021114818F047FE21460D
:108990000F4818F043FE0E4818F03AFEA86801216F
:1089A00017F026FC40F2E93403E014F023FA013C0E
:1089B00004D0A86917F038FC0128F6D0BDE838408B
:1089C000FFF794BE9C6A0020E8690020A06A00209E
:1089D0005C7100202DE9F0411C4E154680460C4686
:1089E00003F0E6FDB068002117F002FC184B1948AF
:1089F00093E8060018F0A8FD4146164818F00EFE50
:108A00005DB1013D134F14FA85F5013C14F8011FC7
:108A1000384618F003FEAC42F8D10E4818F0F8FDC5
:108A20000121B06817F0E4FBB8F1840F0BD040F2DD
:108A3000E93403E014F0DEF9013C04D0B06917F02A
:108A4000F3FB0128F6D0BDE8F08100BFE869002003
:108A5000A06A00205C710020F8B51D4D164607463F
:108A60000C4603F0A5FDA868002117F0C1FB194BC7
:108A7000194893E8060018F067FD3946164818F0C3
:108A8000CDFD0021144818F0C9FD66B1013E124F1A
:108A900014FA86F6013C0021384618F0BFFD04F8B0
:108AA000010FB442F7D10C4818F0B2FD0121A868BB
:108AB00017F09EFB40F2E93403E014F09BF9013C0F
:108AC00004D0A86917F0B0FB0128F6D0F8BD00BFAC
:108AD000E8690020A06A00205C710020F8B51E4DF6
:108AE000074616460C4603F063FDA868002117F000
:108AF0007FFB1A4B1A4893E8060018F025FD0D215C
:108B0000174818F08BFD390A154818F087FDF9B29F
:108B1000134818F083FD5EB1013E114F14FA86F63A
:108B2000013C14F8011F384618F078FDB442F8D122
:108B30000B4818F06DFD0121A86817F059FB40F2B1
:108B4000E93403E014F056F9013C04D0A86917F0A9
:108B50006BFB0128F6D0F8BDE8690020A06A002070
:108B60005C71002070B5194D04460E4603F020FDDF
:108B7000A868002117F03CFB154B164893E8060047
:108B800018F0E2FC0D21134818F048FD210A1148A5
:108B900018F044FDE1B20F4818F040FD31460D4891
:108BA00018F03CFD0B4818F033FDA868012117F0C0
:108BB0001FFB40F2E93403E014F01CF9013C04D03F
:108BC000A86917F031FB0128F6D070BDE8690020D4
:108BD000A06A00205C710020F8B5214D07461646BA
:108BE0000C4603F0E5FCA868002117F001FB1D4BC3
:108BF0001D4893E8060018F0A7FC1D211A4818F03C
:108C00000DFD390A184818F009FDF9B2164818F098
:108C100005FD0021144818F001FD66B1013E124F18
:108C200014FA86F6013C0021384618F0F7FC04F8E7
:108C3000010FB442F7D10C4818F0EAFC0121A868F2
:108C400017F0D6FA40F2E93403E014F0D3F8013C0F
:108C500004D0A86917F0E8FA0128F6D0F8BD00BFE3
:108C6000E8690020A06A00205C71002070B51C4DEE
:108C7000044603F09DFCA868002117F0B9FA194BCF
:108C8000194893E8060018F05FFC1D21164818F0FB
:108C9000C5FC210A144818F0C1FCE1B2124818F0D2
:108CA000BDFC0021104818F0B9FC00210E4818F056
:108CB000B5FC06460C4818F0ABFCA868012117F07B
:108CC00097FA40F2E93403E014F094F8013C04D040
:108CD000A86917F0A9FA0128F6D0304670BD00BF88
:108CE000E8690020A06A00205C710020F8B51D4DE5
:108CF000164607460C4603F05BFCA868002117F0F7
:108D000077FA194B194893E8060018F01DFC0E215C
:108D1000164818F083FCB6B23946144818F07EFCA9
:108D20005EB1013E114F14FA86F6013C14F8011FA2
:108D3000384618F073FCB442F8D10C4818F068FCBF
:108D40000121A86817F054FA40F2E93403E014F066
:108D500051F8013C04D0A86917F066FA0128F6D052
:108D6000F8BD00BFE8690020A06A00205C71002007
:108D7000F8B51F4D164607460C4603F019FCA868C7
:108D8000002117F035FA1B4B1B4893E8060018F03A
:108D9000DBFB1E21184818F041FC3946164818F034
:108DA0003DFCB6B20021144818F038FC66B1013E13
:108DB000114F14FA86F6013C0021384618F02EFCBB
:108DC00004F8010FB442F7D10B4818F021FC01213F
:108DD000A86817F00DFA40F2E93403E014F00AF83D
:108DE000013C04D0A86917F01FFA0128F6D0F8BD9D
:108DF000E8690020A06A00205C710020022103F0D5
:108E0000D1BD00BF034B1B68022B0CBF0220012009
:108E1000704700BFE86900202DE9F84FB44C94F882
:108E20002A3053B994F82C300BB9BDE8F88F606A3A
:108E30000121BDE8F84F17F0DBB9AE4F3B78002BAE
:108E400060D0AD4E40F2E93503E013F0D3FF013DB1
:108E500004D0A06917F0E8F90128F6D00021A06835
:108E600017F0C6F996E80600A44818F06DFB1D211E
:108E7000A24818F0D3FB0921A04818F0CFFB20210D
:108E80009E4818F0CBFB00219C4818F0C7FB00213E
:108E90009A4818F0C3FB0746984818F0B9FB01211F
:108EA000A06817F0A5F940F2E93503E013F0A2FF3E
:108EB000013D04D0A06917F0B7F90128F6D0A068E9
:108EC000002117F095F996E806008C4818F03CFB55
:108ED0000D218A4818F0A2FB0921884818F09EFB52
:108EE0002021864818F09AFB47F00801C9B2834850
:108EF00018F094FB814818F08BFB0121A06817F053
:108F000077F98FE740F2E93503E013F073FF013D95
:108F100004D0A06917F088F90128F6D0764EA06831
:108F2000002117F065F996E80600744818F00CFB6C
:108F30001D21724818F072FB0521704818F06EFB75
:108F400080216E4818F06AFB00216C4818F066FB1F
:108F500000216A4818F062FB8346684818F058FB05
:108F60000121A06817F044F940F2E93503E013F05D
:108F700041FF013D04D0A06917F056F90128F6D051
:108F80000021A06817F034F996E806005B4818F055
:108F9000DBFA1D21594818F041FB0521574818F00C
:108FA0003DFB8321554818F039FB0021534818F048
:108FB00035FB0021514818F031FB82464F4818F02C
:108FC00027FB0121A06817F013F940F2E93503E00F
:108FD00013F010FF013D04D0A06917F025F9012816
:108FE000F6D00021A06817F003F996E80600434880
:108FF00018F0AAFA1D21414818F010FB05213F483E
:1090000018F00CFB84213D4818F008FB00213B4878
:1090100018F004FB0021394818F000FB814637485E
:1090200018F0F6FA0121A06817F0E2F840F2E935ED
:1090300003E013F0DFFE013D04D0A06917F0F4F85F
:109040000128F6D00021A06817F0D2F896E80600B3
:109050002A4818F079FA1D21284818F0DFFA05216E
:10906000264818F0DBFA8521244818F0D7FA0021A9
:10907000224818F0D3FA0021204818F0CFFA804691
:109080001E4818F0C5FA0121A06817F0B1F840F2A7
:10909000E93503E013F0AEFE013D04D0A06917F0FE
:1090A000C3F80128F6D00021A06817F0A1F896E8CF
:1090B0000600124818F048FA0D21104818F0AEFAD0
:1090C00005210E4818F0AAFA80210C4818F0A6FADB
:1090D0004BF00801C9B2094818F0A0FA074818F087
:1090E00097FA0121A06817F083F840F2E9350BE008
:1090F000E86900209C6A0020A06A00205C710020C2
:1091000013F078FE013D04D0A06917F08DF8012816
:10911000F6D00021A06817F06BF896E806005248D8
:1091200018F012FA0D21504818F078FA05214E482F
:1091300018F074FA83214C4818F070FA0AF0F7011D
:10914000494818F06BFA484818F062FA0121A06803
:1091500017F04EF840F2E93503E013F04BFE013D05
:1091600004D0A06917F060F80128F6D00021A068AB
:1091700017F03EF896E806003B4818F0E5F90D2197
:10918000394818F04BFA0521374818F047FA84217E
:10919000354818F043FA09F0F701334818F03EFA61
:1091A000314818F035FA0121A06817F021F840F293
:1091B000E93503E013F01EFE013D04D0A06917F06D
:1091C00033F80128F6D00021A06817F011F896E8CE
:1091D0000600254818F0B8F90D21234818F01EFAAA
:1091E0000521214818F01AFA85211F4818F016FAAF
:1091F00008F0F7011C4818F011FA1B4818F008FA9B
:109200000121A06816F0F4FF40F2E93503E013F005
:10921000F1FD013D04D0A06917F006F80128F6D051
:109220000021A06816F0E4FF96E806000E4818F04A
:109230008BF90D210C4818F0F1F909210A4818F0B2
:10924000EDF92021084818F0E9F90621064818F040
:10925000E5F9054818F0DCF90121A06816F0C8FF0F
:1092600001233B70EEE500BF5C7100202DE9F84F53
:10927000B44C94F82A3053B994F82C300BB9BDE8AB
:10928000F88F606A0021BDE8F84F16F0B1BFAE4F0D
:109290003B78002B5FD0AD4E40F2E93503E013F090
:1092A000A9FD013D04D0A06916F0BEFF0128F6D04B
:1092B0000021A06816F09CFF96E80600A44818F06C
:1092C00043F91D21A24818F0A9F90921A04818F076
:1092D000A5F920219E4818F0A1F900219C4818F01A
:1092E0009DF900219A4818F099F90746984818F016
:1092F0008FF90121A06816F07BFF40F2E93503E009
:1093000013F078FD013D04D0A06916F08DFF01280F
:10931000F6D0A068002116F06BFF96E806008C4896
:1093200018F012F90D218A4818F078F909218848B7
:1093300018F074F92021864818F070F907F0F70149
:10934000834818F06BF9824818F062F90121A0688F
:1093500016F04EFF90E740F2E93503E013F04AFDC6
:10936000013D04D0A06916F05FFF0128F6D0774ECA
:10937000A068002116F03CFF96E80600744818F03B
:10938000E3F81D21724818F049F90521704818F0DA
:1093900045F980216E4818F041F900216C4818F019
:1093A0003DF900216A4818F039F98346684818F0F9
:1093B0002FF90121A06816F01BFF40F2E93503E008
:1093C00013F018FD013D04D0A06916F02DFF01280F
:1093D000F6D00021A06816F00BFF96E806005C4866
:1093E00018F0B2F81D215A4818F018F9052158480C
:1093F00018F014F98321564818F010F90021544848
:1094000018F00CF90021524818F008F9824650482B
:1094100018F0FEF80121A06816F0EAFE40F2E935E6
:1094200003E013F0E7FC013D04D0A06916F0FCFE58
:109430000128F6D00021A06816F0DAFE96E80600B2
:10944000434818F081F81D21414818F0E7F805213C
:109450003F4818F0E3F884213D4818F0DFF8002178
:109460003B4818F0DBF80021394818F0D7F881465E
:10947000374818F0CDF80121A06816F0B9FE40F287
:10948000E93503E013F0B6FC013D04D0A06916F005
:10949000CBFE0128F6D00021A06816F0A9FE96E8C0
:1094A00006002B4818F050F81D21294818F0B6F88E
:1094B0000521274818F0B2F88521254818F0AEF8A4
:1094C0000021234818F0AAF80021214818F0A6F836
:1094D00080461F4818F09CF80121A06816F088FE0D
:1094E00040F2E93503E013F085FC013D04D0A069AA
:1094F00016F09AFE0128F6D00021A06816F078FE3A
:1095000096E80600124818F01FF80D21104818F0D0
:1095100085F805210E4818F081F880210C4818F0D4
:109520007DF84BF00801C9B2094818F077F80848EF
:1095300018F06EF80121A06816F05AFE40F2E935E5
:109540000CE000BFE86900209C6A0020A06A0020AF
:109550005C71002013F04EFC013D04D0A06916F0B0
:1095600063FE0128F6D00021A06816F041FE96E8BF
:109570000600524817F0E8FF0D21504818F04EF849
:1095800005214E4818F04AF883214C4818F046F857
:109590000AF0F701494818F041F8484818F038F83F
:1095A0000121A06816F024FE40F2E93503E013F033
:1095B00021FC013D04D0A06916F036FE0128F6D04A
:1095C0000021A06816F014FE96E806003B4817F04C
:1095D000BBFF0D21394818F021F80521374818F054
:1095E0001DF88421354818F019F809F0F7013348BF
:1095F00018F014F8314818F00BF80121A06816F0A3
:10960000F7FD40F2E93503E013F0F4FB013D04D02F
:10961000A06916F009FE0128F6D00021A06816F016
:10962000E7FD96E80600254817F08EFF0D21234838
:1096300017F0F4FF0521214817F0F0FF85211F489E
:1096400017F0ECFF08F0F7011C4817F0E7FF1B4884
:1096500017F0DEFF0121A06816F0CAFD40F2E935DF
:1096600003E013F0C7FB013D04D0A06916F0DCFD58
:109670000128F6D00021A06816F0BAFD96E8060091
:109680000E4817F061FF0D210C4817F0C7FF0921A4
:109690000A4817F0C3FF2021084817F0BFFF062132
:1096A000064817F0BBFF054817F0B2FF0121A0687C
:1096B00016F09EFD01233B70EEE500BF5C710020BB
:1096C00038B50A4C94F82C5075B9606A431C0BD01D
:1096D000236A013308D0012116F08AFD2946206A49
:1096E000BDE8384016F084BD38BD00BFE8690020F1
:1096F00010B5094C94F82C1069B9606A431C0AD063
:10970000236A013307D016F073FD206A0121BDE8FA
:10971000104016F06DBD10BDE8690020034B044AEF
:109720001A600121002259711A717047A06A002045
:1097300080841E00704700BF43783BBB2DE9F04199
:10974000B14C25788AB025B1B4F846300133A4F87D
:109750004630437BBBB1C378E02B18D0027B8168D5
:109760008DF8193000248DF81820A84B8C541B68F4
:10977000027C8DF81C208168C289DB680591ADF8F8
:109780001A2005A898470AB0BDE8F081704735B99E
:10979000037B042B7DD09E48FFF712F8F3E7826825
:1097A00013786370072BEED8DFE803F0403D396E85
:1097B000562F0E04037B032B00F0D180072B00F003
:1097C000E18001236370DEE7924B1B788DF80C304B
:1097D0000025022302A8A570A4F8465025708DF834
:1097E000083005F023FD8C4B187806F069FA8B4B96
:1097F0008DF814500FCB0AAD05E90F0005A805F050
:1098000003FF2378002BBED1C5E70AA8012300F887
:10981000143D05F0F9FE2378002BB4D1BBE70123FA
:10982000A3706370AFE702232371ACE7794A127823
:109830008DF818200023022205A8A4F846302370D2
:109840008DF8142005F0F2FC734B187806F038FA06
:109850002378002B97D19EE7037B2371F22B4FF0E7
:1098600004011D4628BFF225012B61718BD96C497B
:10987000012300E08268D25C0133DCB20132AC42E9
:1098800001F8012FF6D37EE700220123A270637056
:1098900079E783681A78012A7FF47DAF5A78012A24
:1098A0007FF479AF9A78012A7FF475AFDE78012EC4
:1098B0007FF471AF0AAF4FF0020807F8208D3846E9
:1098C000A570A4F8465084F8485084F8495084F8AC
:1098D0004A502670667084F8048005F0C7FB4D4B33
:1098E0009DF80C201A7038468DF808808DF80C60B1
:1098F00005F09CFC284606F0E3F94A494448FEF787
:1099000007FF41F288314248FEF762FF94F8483081
:10991000002B62D040F2035194F8492094F84A3069
:1099200084F848506670A180A271E37101A9207982
:1099300005F00EFB002841D000238DF8143007936A
:10994000ADF820308DF822303148FEF729FF05A808
:1099500005F076FF2378002B7FF415AF1BE7022379
:109960008DF814305178937805A843EA0123ADF8B7
:10997000183005F049FE237801226270002B7FF435
:1099800002AF08E703238DF814305178937843EA47
:109990000123ADF818301379D07851791B0243EACE
:1099A00000430B43642101FB03F3079393798DF884
:1099B000203005A805F028FE2378DDE7A37822797A
:1099C0009BB9E02016498DF81430ADF820208DF8B1
:1099D00022308DF818000791B6E76378012B23D069
:1099E000042BA3D101236370A0E70125E0200C49DB
:1099F000ADF820204FF400638DF814508DF8180056
:109A00000791ADF822309FE7D06A0020A86A0020B5
:109A10001C6B0020CC6A00201C6C0020AC6A00206B
:109A2000D56A0020399A0200B4F84630A3710222A8
:109A30001B126371227179E710B52E4C94F84830EF
:109A400086B013B3002340F2035094F8491094F801
:109A50004A2084F848300123A080A171E27163702C
:109A6000032001A905F074FAE8B100238DF808304D
:109A70000493ADF814308DF816301F48FEF790FEB1
:109A800002A805F0DDFE06B010BD6378012B28D0DA
:109A9000042B08BF0123207908BF637001A905F0DA
:109AA00057FA0028E1D1A37822795BB9E020134965
:109AB0008DF80830ADF814208DF816308DF80C00B4
:109AC0000491DAE70124E0200C49ADF814204FF4AA
:109AD00000638DF808408DF80C000491ADF8163045
:109AE000CBE7B4F84630A37102201B1263712071DA
:109AF000B7E700BFD06A00201C6B0020D56A0020A9
:109B00000246024B0068516803C370473C6B00205B
:109B10000246024B0068516803C37047346B002053
:109B200010B40346044C59689A680068DB680FC497
:109B30005DF8044B704700BF0461002010B4034679
:109B4000044C59689A680068DB680FC45DF8044BE0
:109B5000704700BF2461002010B40346044C5968CC
:109B60009A680068DB680FC45DF8044B704700BF5B
:109B700014610020014B1860704700BF506B00203B
:109B800000B5421E85B00023082ACDE901330393B6
:109B900008D8023807283BD8DFE800F035312C28F8
:109BA000231F083E184605B05DF804FB4FF47F43C1
:109BB000ADF80A3001A90622194800F0EDFA01A912
:109BC0000622184800F0E8FA01A90622164800F01B
:109BD000E3FA012005B05DF804FBFF23ADF80A307D
:109BE000E8E74FF47F43ADF80830E3E7FF23ADF833
:109BF0000830DFE74FF47F43ADF80630DAE7FF23A4
:109C0000ADF80630D6E74FF47F43ADF80430D1E726
:109C1000FF23ADF80430CDE7FF23ADF80C30C9E7E2
:109C2000206C00202C6C0020386C0020F0B595B022
:109C30000EAC84E80600024694E80300714C724DB5
:109C40002260724A724E1060C1F307202B7091801F
:109C50003070002B00F099806E486F49C5794378C9
:109C600002780595857904954579039505790295DE
:109C7000C5788078CDE90005684819F013FE68487A
:109C80006849C579437802780595857904954579C1
:109C9000039505790295C5788078CDE9000562487D
:109CA00019F000FE61486249C57843780278019551
:109CB00085780095C57B0D95857B0C95457B0B952F
:109CC000057B0A95C57A0995857A0895457A0795A1
:109CD000057A0695C57905958579049505794779BD
:109CE00054480295039719F0DDFD2268524B534901
:109CF00014685348534A0C6018605A60524C9C6078
:109D00001846082204F0C2FF0546002876D14F4CC1
:109D10009DF83830237120460223237005F086FA1F
:109D200016229DF83C3022702046237105F07EFA01
:109D300007229DF83A3022702046237105F076FA0A
:109D400020462570257105F071FA14AC307805F0C5
:109D5000B7FF4FF47F43CDF84650CDF84A50ADF8E9
:109D60004E5024F80C3D06222146394800F014FAE2
:109D700021460622374800F00FFA374821460622CE
:109D800000F00AFA284615B0F0BD25482549C579E6
:109D90004378027805958579049545790395057989
:109DA0000295C5788078CDE900051F4819F07AFD45
:109DB0002A482B49C5784378027801958578009523
:109DC000C57B0D95857B0C95457B0B95057B0A9591
:109DD000C57A0995857A0895457A0795057A069595
:109DE000C579059585790495477905790B480397D9
:109DF000029519F057FD1B481B4955E74FF0FF30FE
:109E0000C1E700BFA86A00201D6C0020546B002031
:109E10001C6C0020346B00209C6204009C6B0020B2
:109E20003C6B0020CC6204005C6B002004610020CD
:109E3000FC620400DC6B0020C06A0020BC6A0020C9
:109E40003597020039970200259F0200446B0020DD
:109E5000206C00202C6C0020386C00202461002035
:109E60005463040014610020AC63040030B522493F
:109E7000224A234B234DD878234B244C2D7887B08E
:109E8000CDE9021204938DF8140006AB13E90F001C
:109E900084E80F0000238DF8043045BB1C4C0323DD
:109EA00020462370656005F0C1F91A4B04221B6837
:109EB00022702046636005F0B9F90522164B227026
:109EC0002046636005F0B2F90622144B227020464A
:109ED000636005F0ABF9012320462370237105F080
:109EE000A5F90F4B1B681B69984707B030BD01A847
:109EF00005F08AFB07B030BD3C6B0020346B0020BE
:109F0000546B00201D6C002004610020AC6A00200E
:109F1000446B0020506B002024610020146100205D
:109F2000A86A0020037883B1012B0DD1427852B981
:109F30000A4A117839B182F84830037A82F84930F8
:109F4000437A82F84A307047704743781BB9044B14
:109F50001B681B691847FFF789BF00BFD06A002044
:109F6000A86A002000B585B004A8012300F80C3DC4
:109F700005F07CF89DF8080005B05DF804FB00BF13
:109F80001B4B1B7883BB30B587B00D46044601A937
:109F9000007904F0DDFF20BB164B607993F90130A6
:109FA00021792268ADB108248DF80C00ADF81410A9
:109FB00004928DF816308DF81740012506A800F898
:109FC000105D05F03DFC003018BF0120404207B095
:109FD00030BD8DF80C00ADF8141004928DF81630D9
:109FE000ECE74FF0FF30F2E74FF0FF30704700BF73
:109FF000D06A0020546B002070B584B004AD0024FA
:10A0000005F80C4D0646284605F030F89DF8083056
:10A01000B34213D0012E14D022D3022E1BD11C1C0C
:10A0200018BF0124284664428DF8086005F0FEF848
:10A0300088B9144B1B6830465B699847204604B0CA
:10A0400070BD012BFAD028468DF8086005F0EEF8B7
:10A0500004460028EDD04FF0FF34204604B070BD18
:10A060001BB91C46204604B070BD28468DF8084038
:10A0700005F0DCF804460028EDD1024B1B685B6953
:10A080009847DBE7A86A002005F02EBE014B0022AE
:10A090005A7070471C6B0020884204DB9042CCBF92
:10A0A0000020012070470020704700BF0B09B3EB70
:10A0B000121F12D8914210D21BB210B4012230F8F4
:10A0C000134001F00F0102FA01F124EA010120F826
:10A0D00013105DF8044B104670470020704700BF16
:10A0E000002856D0914255D2531E5B1A51FA83F381
:10A0F00030B4841C00EB410104EB4304002031F830
:10A10000025B05F00103AA0748BF01336A0744BF99
:10A110000133DBB22A0744BF0133DBB2EA0644BF96
:10A120000133DBB2AA0644BF0133DBB26A0644BF87
:10A130005A1CD3B22A0644BF5A1CD3B2EA0544BF04
:10A140005A1CD3B2AA0544BF5A1CD3B26A0544BFF5
:10A150005A1CD3B22A0544BF5A1CD3B2EA0444BFE6
:10A160005A1CD3B2AA0444BF5A1CD3B26A0444BFD7
:10A170005A1CD3B22A0405D403448C42D8B2BED1AF
:10A1800030BC70475A1C83188C42D8B2B7D130BC4F
:10A190007047704700207047C0B3B9B3B2B32DE920
:10A1A000F041031D0C1DA04238BF99422FD30D2A48
:10A1B0002DD9C1F340050DB10B880380A2EB050E2C
:10A1C0006C005FFA8EFE0E194FEA5E08044400230D
:10A1D0000133DFB256F804CB44F804CBB845F7D8C6
:10A1E0000EF0FE031D449E45EDB20DD02BB201359D
:10A1F000EDB231F8134020F81340AA4204D92DB231
:10A2000031F8153020F81530BDE8F0817047531E45
:10A21000DBB201EB43030238023931F8022F20F898
:10A22000022F9942F9D1EFE700B94A608A6070477E
:10A230002DE9F047002B4DD0013BDBB202F11007B6
:10A240000D460646144607EB03174FF0FF384FF054
:10A25000000946B1E5B9E560A8461034A742F8D137
:10A260004046BDE8F0876068FEF7C2FA824645BB0B
:10A270006068FEF7BDFAE368834206D9002BECD094
:10A280001B1A984528BF9846E7E7C4F80C90E4E706
:10A29000D4E9020AFEF7ACFA8245F6D9D4F80CA04C
:10A2A000BAF1000FD9D0A068FEF7A2FAAAEB00001D
:10A2B0004045D2D2D4E90208FEF79AFAA8EB00088A
:10A2C000CBE7A068FEF794FA8245D1D2A068FEF7EA
:10A2D0008FFAD0E74FF0FF384046BDE8F08700BF67
:10A2E0000378032B01D00020704790F9013003F070
:10A2F0000F02C3F303138A704B7083788B80C2788C
:10A3000043EA02238B800379C3F3021203F00F03A5
:10A31000CA700B70052070472DE9F04F0546407854
:10A3200095F902E095F9039085B0A0B9B5F90260FE
:10A3300095F905E095F9069040F60F74A6420AD00B
:10A3400095F907A04C4681F800E0147083F800A04E
:10A3500005B0BDE8F08F287895F904A000285DD0FD
:10A3600095F91040744514DD00F0FD0095F9194091
:10A3700095F918604C4504DC4E45B8BF00F0FB0071
:10A380004C460728DFD1BAF1000FDCD195F907A0C0
:10A39000D9E795F911407445E6DB2C7A0094002C3E
:10A3A000E2D0EE686F69CDF8049000240292039326
:10A3B000A346A1463A4633465FFA89F40BEB4B06B7
:10A3C00033F8148002EB8606002448FA04F717F0ED
:10A3D000010F04F101040CD096F808C04CF30317E8
:10A3E0000CF00F0C7FB2E64507F00F0701DBBE450E
:10A3F00010DD102C06F10C06E7D10BF1100B009CC0
:10A400005FFA8BFB5C4509F10109D5D8DDE90192C2
:10A41000039BA9E7DDE90192039BA7E74C4692E77E
:10A42000012370B503FA00F00E4617F009FF044649
:10A4300030460D4617F0F4FE02460B4620462946EC
:10A4400018F092F80022034B17F064FF41EC100B58
:10A4500070BD00BF00408F402DE9F84F57EC106BE6
:10A460000446043840001D4692468B4617F0E8FE2D
:10A4700032463B4617F04EFF80464FEA4B00894676
:10A4800017F0CEFE02460B464046494617F08CFDBB
:10A4900032463B4618F068F841EC100B17F0A0FB71
:10A4A00051EC100B18F0F8F9844238BF04462C60C8
:10A4B00000221A4B3046394617F02CFF80462046C2
:10A4C000894617F0ADFE002204460D46144B304677
:10A4D000394617F01FFF02460B462046294617F063
:10A4E00019FF02460B464046494617F05BFD0446FD
:10A4F00050460D4617F094FE0B460246294620466C
:10A5000017F050FD41EC100B17F06AFB51EC100BEB
:10A5100018F09AF90A9B1860BDE8F88F0000104007
:10A520000000E03F400007EE900A00B5F8EE677AC1
:10A5300083B030EE670A30EE600A17F0E9FCFDEEFA
:10A54000C07ACDED017A9DF9040003B05DF804FBFB
:10A55000D0E9002170B4C37A447A03EB430302EBE1
:10A56000830300255B7A1B01CA18CB5AD560817A18
:10A570004CB9C568124CA5420ED86424A9B9017A19
:10A5800099B970BC70470029FBD00169013B01FB00
:10A5900003F3D36070BC70470A4E42F21074B542A8
:10A5A00098BF4FF47A740029E9D0A34238BF2346FC
:10A5B0000169013B01FB03F3D36070BC704700BF2E
:10A5C0007FEE36007F3F5C0208B50378202B4AD827
:10A5D000DFE803F01149494949494949491D2249E0
:10A5E000292C2F3235383B494511471B2743494910
:10A5F000494919191300082008BD90F9010090B3CA
:10A60000013840B208BD022008BD184808BD90F9C5
:10A610000130174AD05C08BD90F90130154AD05C72
:10A6200008BD482008BD40F6B83008BD4FF47A7028
:10A6300008BD4FF4FA6008BD41F2883008BD41F210
:10A64000707008BD4FF4804008BD4FF47A710A481D
:10A6500002F090FB00F5FA6008BD084808BD084804
:10A6600008BD084808BD002008BD00BF206C0020C0
:10A67000686404007864040018FCFFFF446C002048
:10A68000A07008372C6C002010B40378074C0849E0
:10A690004268407803EB430304EB83035DF8044B0B
:10A6A0005B7A01EB0311FFF7BFBD00BF446C0020D4
:10A6B000386100200128F8B50ED021D302281ED120
:10A6C000334934480622FFF767FD062231493248F4
:10A6D000BDE8F840FFF760BD2E4C2D49204606220C
:10A6E000FFF75AFD2C4B20681E68D4E90112D3E90C
:10A6F000015430402940C3E9000122409A60F8BD6E
:10A70000264D274A2B4605F54074302000211A605B
:10A71000187259720C3302F54332A34202F5A0724B
:10A72000F5D11B4A1F4B204CC5F80033FF234FF0D7
:10A73000FF309360C5F81843442304F5C304C2E90D
:10A7400000001A4F1A481B4EA5F808331146A5F809
:10A750001433194AA5F82033A5F82C33A5F838335B
:10A76000A5F84433A5F85033A5F85C3304F520541C
:10A77000124BC5F83023C5F83C03C5F80C73C5F877
:10A78000246306220348C5F84843C5F854339AE7C2
:10A79000206C00202C6C0020386C0020446C0020C1
:10A7A0006001C835C0AFD235C0830336C019EB3560
:10A7B000C0C14C36C0ED1B36C0573436C0957D360F
:10A7C000043908B51A290FD8DFE801F0101A242E31
:10A7D0002E0E0E0E0E0E0E0E0E0E0E0E0E0E0E0E79
:10A7E0000E0E0E0E0E0E3800002008BD04220021B1
:10A7F00090F90000FFF750FC003018BF012008BDA1
:10A800000522002190F90000FFF746FC003018BF38
:10A81000012008BD0D22082190F90000FFF73CFC43
:10A82000003018BF012008BD0A22002190F9000065
:10A83000FFF732FC003018BF012008BD0078012866
:10A8400094BF0020012008BD704700BF70B50422EE
:10A85000054600210068FFF743FC01280AD02C7947
:10A8600054B1012C06D129680E480622FFF794FC4A
:10A87000204670BD002070BD0B4C29682046062282
:10A88000FFF78AFC094B2068D3E90061D4E9015243
:10A890009C68304029402240C3E900019A600120B1
:10A8A00070BD00BF206C00202C6C0020386C002094
:10A8B000F0B44478476890F9085090F909601F6037
:10A8C00054B175B143683F2B12D95F2B03D903F004
:10A8D0001F03012B12D000260D7020461670F0BC0D
:10A8E00070472C461D6020460D701670F0BC7047F6
:10A8F00000240D7020461670F0BC7047013D6DB20B
:10A90000002DE8D104784CB1054BFF244FF0FF3007
:10A910009C60C3E900002E462C46DDE72646DBE7B7
:10A920002C6C00200D282DE9F043A8BF0D20134EFC
:10A93000134F56F820505870BD4283B01C468846CD
:10A94000914618D00F4B9D420CBF022500250E4B9F
:10A9500056F82010A570185CFFF762FD04F10C0397
:10A9600000934946404604F108030322FFF774FDB3
:10A9700003B0BDE8F0830125E9E700BF14640400DB
:10A9800090D0030020A10700046404002DE9F043E7
:10A99000214E90F90170B36845688BB00446884633
:10A9A0009847002834D1E37C33B925781B4A1C4BE7
:10A9B00005F0070502FB05351A4A336912F90790BD
:10A9C00028469847A37CA1780993002501234FF0DE
:10A9D000080C08931846CDE90655CDE90455CDE994
:10A9E0000255CDE9005C4A46F569A847637C63B926
:10A9F0000D4BD95DF36D0D31C9B20120984701208F
:10AA000088F800700BB0BDE8F083084BD95DF1E722
:10AA100000200BB0BDE8F0838C640400C02709005F
:10AA2000A0700837046404006864040078640400BB
:10AA30002DE9F04F05463B4895F9013095F9027034
:10AA4000C656042B8DB08946924640D1022FDFF8BE
:10AA5000F0B0B8BF02270223DFED330A0B93B3EE49
:10AA60000E0A3846FFF75EFD0A902878DFF8D4809A
:10AA700000EB4000D8F810205BF82000904701243C
:10AA800000224FF0080C40F6B830CDE90720CDE9A0
:10AA90000522CDE90324CDF808C00A9900960B9B46
:10AAA000D8F8206001942046B047D8F85C30297B64
:10AAB00020469847D8F82830297B20469847CAF87E
:10AAC0000000204689F800700DB0BDE8F08F2B78AB
:10AAD000DFF86CB01549164803EB43030BEB830317
:10AAE00004225B7A01EB0313002193F90240FFF784
:10AAF000F7FA312810D9A742B8BF27460D4B95F970
:10AB000001100D4A53F82130934209D00B4A934269
:10AB100018BF0023A0D19EE7052FB8BF0527EDE79A
:10AB2000012399E70464040000000000386100205C
:10AB30002C6C00201464040090D0030020A10700B6
:10AB4000446C00208C6404002DE9F04F8DB002AFFE
:10AB5000002406468B4692463846062255497C60BC
:10AB60000294BC609946FFF717FB2546A0460724D0
:10AB70003379AB4269461BD930682844FFF7B0FBF4
:10AB80002B18A8B19DF80340062CDDB256D00CABB3
:10AB9000072C03EB44035BD0052C60D0BDF80420E8
:10ABA00023F8282C3379AB424FF007046946E3D8E9
:10ABB0009DF90120032A54DDB1799DF802008DF83A
:10ABC00016208DF815109DF80020F1798DF81700EA
:10ABD000307A8DF814408DF81820747A8DF8191099
:10ABE00048224FF480618DF81A0033488DF81B40DD
:10ABF0008DF81C200A24ADF824100A906B460DF144
:10AC000002020DF1010105A8ADF82C400897FFF7ED
:10AC100083FB072804462FD09DF801308BF80030C5
:10AC20009DF802209DF800308AF8002089F8003055
:10AC3000169B20461D700DB0BDE8F08F4FF0FF331E
:10AC4000BDF80420ADF81020CDE9023307248FE7CA
:10AC5000BDF80430ADF81030CDE9028888E706244D
:10AC600086E7042200213846FFF73AFA01289DF9C9
:10AC7000012098BF06249FE70E4E39463046062233
:10AC8000FFF78AFA0D4BB6F800C01A885F88718802
:10AC9000988802EA0C020F401A80B188DA88B6F868
:10ACA00006C05F80084002EA0C02B1689880DA8032
:10ACB0009960B1E72C6C0020446C0020386C0020B7
:10ACC00070B5224B44685B6A05462046984720B120
:10ACD0001F4B204A2344934224D9042406260D22E4
:10ACE000082195F90000FFF7D7F90722002818BFBF
:10ACF0003446052195F90000FFF7CEF901280ED062
:10AD000095F900300D2B0ADC95F901000322002192
:10AD1000FFF7C2F908B904F0FB04204670BD04F047
:10AD2000FD04F1E702F1DF4202F5C81202F24572BA
:10AD3000A2FB03020849920C01FB1233002B0BBF4C
:10AD40000524042407260626C9E700BF8C640400F6
:10AD5000608FF7C840164000C027090000207047E8
:10AD60004FF0FF30704700BF00207047044BFF22B8
:10AD70001A81038813F0010F14BF042000207047CC
:10AD80002C6C002070B586B0417803788DF80C10DB
:10AD9000D0E90141094A8DF80D30094B8678C57814
:10ADA0008DF80E6001A88DF80F50CDE90441CDE972
:10ADB0000123FFF7CDFB06B070BD00BF446C00203F
:10ADC000386100202DE9F04F99B0554D059103925F
:10ADD00000214822044606A81F4617F070FE2846A8
:10ADE00004220021FFF77CF900287DD094F9083077
:10ADF000032B02DD2B7A002B72D0D4E90050FDF733
:10AE0000F7FC85425ED800263E600123454AA17AC0
:10AE1000607ADFF818A1424FFFF70AFA94F908B0F8
:10AE200004900296B146D046F3B2019300243A88CA
:10AE30002241331912F0010F04EB440103EB4303E9
:10AE400024D058F821C058460AEB83028D00BCF18B
:10AE5000000F1BD0117A41F3031241F3030152B2E8
:10AE600049B2FFF719F908EB050378B12D4A5B7A6F
:10AE700002EB031318AADB684A44F3B9019B09F1FA
:10AE8000010923445FFA89F902F8483C0134102C87
:10AE9000CDD11036502E07F1020708F1C008C3D1FA
:10AEA000B9F1000F26D1029B93B9039B1A46029B6E
:10AEB0001360184619B0BDE8F08F029B0133DBB276
:10AEC0000293E3E7D4E90040FDF792FC231A0493D0
:10AED000039B1A46049B1360012019B0BDE8F08F54
:10AEE000114B1B892B8188E704220F492846FFF765
:10AEF00053F97BE709F1FF31002001F03BFF18AB6C
:10AF00001844059B10F8481C197040220448FFF7AC
:10AF1000CDF8039A00230120136019B0BDE8F08F2B
:10AF2000386C0020386100202C6C0020446C00201C
:10AF3000F0B590F9012090F902500378042A83B00B
:10AF4000044630D01B4E1C491C4803EB430306EB60
:10AF5000830304225B7A01EB0313002193F902704F
:10AF6000FFF7BEF8312818D8052D23782846B8BF3A
:10AF7000052003EB4303DFED120A56F82350B3EE2E
:10AF80000E0AFFF7CFFA0F4BA2895B6C01930146C3
:10AF9000284603B0BDE8F0401847BD422846237854
:10AFA000B8BF3846E5E7022D2846024EB8BF02205A
:10AFB000DFE700BF446C0020386100202C6C0020CB
:10AFC000000000008C640400034B03EB81018856F1
:10AFD00020EAE070C0B2704754640400012070475A
:10AFE000034B93F82930002B14BF35200320704702
:10AFF000E8690020002001F085BB00BF194B10B5A7
:10B000001860194801F080FA002001F07BFB174B13
:10B0100093F82B3013BB012001F006FC00210846F9
:10B0200001F036FE0421002001F0BCFC00234FF6A5
:10B03000FF711A46084601F003FC0D4A0D4C0E49FB
:10B040000123104653706370FDF762FB20460B49E5
:10B05000FDF75EFB0A4B00221A7010BD002001F0C4
:10B06000E3FBDBE74C71002031B20200E86900200D
:10B0700034710020C070002001B2020019B2020039
:10B08000A46F00200B4B10B518600B480B4C01F05F
:10B0900081FA0B4A0B490123104653706370FDF788
:10B0A00037FB20460849FDF733FB084B00221A7096
:10B0B00010BD00BF4C71002031B20200C0700020F2
:10B0C0003471002001B2020019B20200A46F002006
:10B0D00008B501F061FA0438C0B2032896BF024BEC
:10B0E0000020185C08BD00BF8864040001F0DCBBD0
:10B0F000FDF7BCBDFDF736BD38B50C460546FEF77D
:10B10000F7FA40F2012100231A46084601F098FBA5
:10B1100001F042FC0C4B01280C480CBF83F827407F
:10B1200083F8204001F002FD21462846002201F06C
:10B1300081FA074B07481968FDF74AFB0548BDE847
:10B140003840FDF72DBB00BFD8700020F070002004
:10B15000307100203471002008B54FF0040001F078
:10B16000BDFA0220BDE8084011F044BE38B50D46D6
:10B1700000234FF6FF7104461A46084601F060FBB3
:10B1800029462046BDE8384001F006BB01F05EBD0F
:10B1900008B5FEF795FA00234FF4C0711A46084629
:10B1A00001F04EFBBDE8084001F014BB38B50D4678
:10B1B000144601F079FB2846FDF720FE01F016FB4E
:10B1C000204617F03DF8084B084C002217F0A2F873
:10B1D00017F062FB01462046FDF7FAFA2046BDE86B
:10B1E0003840FDF7DDBA00BF00408F4034710020C9
:10B1F00008B501F05BFD08BDFDF770BCFDF7ECBCC8
:10B2000008B5FDF771FA034B01221A70BDE808403A
:10B21000FDF76CBA2D71002008B5FDF765FA034BF8
:10B2200001221A70BDE80840FDF760BA2C710020B9
:10B2300008B5FDF759FA034B01221A70BDE8084022
:10B24000FDF754BAA46F002070B57C4C237882B00F
:10B2500023BB7B4B1A789AB97A4B1A780AB902B099
:10B2600070BD002278481A70FDF7AAFA774B1B6868
:10B27000002BF4D05B68002BF1D0984702B070BD72
:10B28000002273481A70FDF79BFA704B1B68002B65
:10B29000E2D0DB68002BDFD09847DDE7FDF724FA2A
:10B2A00000232370FDF722FA01F0ECFA04464FF672
:10B2B000FF7001F049FDE10737D4A20752D42606FA
:10B2C00042D4A5051AD4600705D5604B1B6813B19D
:10B2D0005B6903B19847A106BBD55D48FDF770FADD
:10B2E0005C4B1B78002B00F09080584B1B68002BA8
:10B2F000AFD0DB68002BACD09847AAE701F04CF93F
:10B30000042870D001F048F90528DCD15048FDF739
:10B3100057FA012001F046F94C4B1B68002BDAD09C
:10B32000DA68002A6DD09047CDE74748FDF748FA24
:10B33000012001F037F9454B1B68002BBDD01B687D
:10B34000002BBAD09847B8E7012001F02BF93F4B0A
:10B350001B68002BB5D0DB69002BB2D0C4F30020F2
:10B360009847AEE73A48FDF72BFA3A4B1D78002D87
:10B370004FD0FF220021384817F0A1FB630616D5F5
:10B38000FF220021344817F09AFBFF220DF107013C
:10B39000314801F021F9314801F096FC2B4B1B6834
:10B3A000002B8CD01B69002B89D0984787E72B4D49
:10B3B0002948FF220DF1070101F00EF9284601F09E
:10B3C00083FC224B1B68002B3FF479AF9E68002E54
:10B3D0003FF475AF95F90D3095F90C209DF80710E5
:10B3E0001D48B0476BE71848FDF7EAF9012001F066
:10B3F000D9F8164B1B68002B3FF46DAF5A68002A32
:10B4000091D162077FF567AF62E7012001F0CAF8CA
:10B410006BE7012001F0C6F8294640F60210FDF75F
:10B42000A1FB40F64410FDF721FC40F00201C9B237
:10B4300040F64410FDF796FB9BE700BFA46F002089
:10B440002C7100202D710020347100204C710020DF
:10B45000C0700020BB700020BC6F0020A86F0020CF
:10B4600001280A480AD0C37F012B00D07047084B3F
:10B4700080F820101830197001F058BB044B80F888
:10B4800027101830197001F051BB00BFD870002090
:10B4900048610020000000002DE9F04F884683B08D
:10B4A000002879D0012803D0002003B0BDE8F08F38
:10B4B000DFF8A8A1644A9AF851309AF850B0BAF867
:10B4C0002400043BCBF10C0103EB430301EB4303EA
:10B4D00002EBC303D3E9004516F0B2FE0646CBEB00
:10B4E00048009AF828809AF82630073000EB880048
:10B4F000012B4FEA800008BF14380F4616F0A0FE5B
:10B500009AF85330804689460BB1ABF1020B4FEAF3
:10B510008B0016F095FE02460B464046494617F052
:10B5200023F841EC100B16F05BFB9AF8520053EC39
:10B53000102B00F003000430CDE9002316F080FE4C
:10B54000DDE9002316F0E6FE00220023804689464E
:10B5500017F066F9002864D03046394600223B4B8C
:10B5600016F022FD02460B464046494616F01CFDE9
:10B5700022462B4616F0CEFE31A3D3E9002316F067
:10B5800013FD41EC100B16F0B3FB51EC100B17F050
:10B5900083F903B0BDE8F08FDFF8C0A0BAF81A3025
:10B5A0009AF81D0003EBD00016F04AFE9AF81F30FF
:10B5B00006460F46002493B3254D404616F040FE44
:10B5C00032463B4616F0F0FC22462B4616F0ECFCC9
:10B5D0009AF82140022C02460B4627D01046194605
:10B5E00000221C4B16F096FE0446DAF844000D4685
:10B5F00016F016FE02460B462046294616F0B4FF0A
:10B600000022154B16F086FE41EC100B16F0F8FBED
:10B6100051EC100B17F040F903B0BDE8F08F002596
:10B62000CBE74FF000084FF0000995E700224FF0FC
:10B63000804316F0B9FC02460B46CFE7AFF300801B
:10B640002B8716D9CEF7EF3FB8650400008028405D
:10B650000000F03F0000204000408F40D8700020E4
:10B6600010B50446FEF72CF800234FF6FF711A467A
:10B67000084601F0E5F80F4B1B789BB12CB96FF031
:10B680007F40BDE8104001F055B821460A48FDF75B
:10B690009FF80948FDF784F86FF07F40BDE810403F
:10B6A00001F048B8054B1868BDE81040800101F072
:10B6B00041B800BFBB700020C0700020BC700020EB
:10B6C00000234FF6FF7110B51A460446084601F0F4
:10B6D000B7F80F4B1B789BB12CB96FF07F40BDE8DA
:10B6E000104001F03DB821460A48FDF771F80948BD
:10B6F000FDF756F86FF07F40BDE8104001F030B81C
:10B70000054B1868BDE81040800101F029B800BF62
:10B71000BB700020C0700020BC7000200128F8B56C
:10B72000044621D1284D01F027F92E786B78B342D9
:10B7300003D1264C01232370F8BD20466E7001F022
:10B740001BF92F786B78BB4217D1204C0123237053
:10B750001EBB14214FF4E860FDF704FA242140F2E7
:10B760004170FDF7FFF9E5E7002001F005F9164A01
:10B77000164B002151701C70F8BD20466F70FFF70A
:10B78000CDFFAFB914214FF4E860FDF7EBF92421A8
:10B7900040F24170FDF7E6F9D7E734214FF4E86055
:10B7A000FDF7E0F9442140F24170FDF7DBF9C1E714
:10B7B00034214FF4E860FDF7D5F9442140F241709F
:10B7C000FDF7D0F9C1E700BF507100205271002091
:10B7D0002DE9F84F0546884616461C4600F0DCFE6B
:10B7E0000438C0B2032803D85F4B1B5C002B45D143
:10B7F000012D0CD15D4F284601F0BEF897F800905E
:10B800007B784B4546D15A4D01232B7007E0002031
:10B8100001F0B2F8554A564B002151701D70404658
:10B8200001F042F8FDF74CFF00234FF6FF711A4676
:10B83000084601F005F84F4B1B782BB36FF07F40A3
:10B8400000F078FF012011F0D5FAFCF7CFFF054694
:10B8500004E001F02BFA00B2864213DB2846FCF725
:10B86000C7FF8442F5D801244FF0040000F036FFF2
:10B87000022011F0BFFA2046BDE8F88F00242046D0
:10B88000BDE8F88F0024EFE73B4B1868800100F01B
:10B8900051FFD7E7284687F8019001F06DF897F837
:10B8A00000A07B78534510D1314D01232B70B9F1A5
:10B8B000000F25D114214FF4E860FDF753F924213E
:10B8C00040F24170FDF74EF99EE7284687F801A047
:10B8D00001F052F897F800B07B785B451BD1244DFE
:10B8E00001232B70BAF1000F28D114214FF4E86026
:10B8F000FDF738F9242140F24170FDF733F9D4E720
:10B9000034214FF4E860FDF72DF9442140F24170F5
:10B91000FDF728F978E7284687F801B0FFF7FEFE23
:10B92000BBF1000F15D114214FF4E860FDF71AF9AF
:10B93000242140F24170FDF715F9D0E734214FF48E
:10B94000E860FDF70FF9442140F24170FDF70AF974
:10B95000ABE734214FF4E860FDF704F9442140F2ED
:10B960004170FDF7FFF8BAE78864040050710020C9
:10B9700052710020BB700020BC7000202DE9F04106
:10B98000474C054601202570657000F0F5FF2678CC
:10B990006378B3420FD1434C012323702DBB142194
:10B9A0004FF4E860FDF7DEF8242140F24170BDE875
:10B9B000F041FDF7D7B80120667000F0DDFF277871
:10B9C0006378BB421DD1374C01232370A6BB1421E1
:10B9D0004FF4E860FDF7C6F8242140F24170FDF70E
:10B9E000C1F801232370002DD9D034214FF4E86031
:10B9F000FDF7B8F8442140F24170BDE8F041FDF791
:10BA0000B1B80120677000F0B7FF94F80080637848
:10BA100043451CD1234C012323705FBB14214FF4F9
:10BA2000E860FDF79FF8242140F24170FDF79AF895
:10BA300001232370002ECAD034214FF4E860FDF7B3
:10BA400091F8442140F24170FDF78CF8A4E7012001
:10BA500084F80180FFF762FEB8F1000F15D11421C0
:10BA60004FF4E860FDF77EF8242140F24170FDF7C5
:10BA700079F8CFE734214FF4E860FDF773F84421FB
:10BA800040F24170FDF76EF89EE734214FF4E86014
:10BA9000FDF768F8442140F24170FDF763F8B9E71B
:10BAA00050710020527100202DE9F04383B00F4601
:10BAB0009DF82C900A99BDF830E09DF834609DF80F
:10BAC00038C09DF84480002856D0012840D1BA4A99
:10BAD000BA4CD25C84F85120CAB284F8400084F891
