:020000022000DC
:1060000000000420911A0400D11A0400F1270400B2
:10601000D51A0400D71A0400D91A040000000000A1
:106020000000000000000000000000000D1A040045
:10603000DD1A0400000000002D1A0400E11A04001B
:10604000411D0400E31A0400E31A0400E31A0400EB
:10605000E31A0400E31A0400F1F20300E31A040057
:10606000E31A0400E31A0400E31A0400E31A04002C
:10607000E31A0400E31A0400E31A0400E31A04001C
:10608000E31A040099170400E31A0400E31A040059
:10609000E31A0400E31A040025AA0300E31A04002B
:1060A000E31A0400E31A0400E31A0400E31A0400EC
:1060B000E31A0400E31A04000000000000000000DE
:1060C000E31A0400E31A0400E31A0400154504006F
:1060D000E31A0400E31A0400E31A040021F00300A9
:1060E000E31A0400E31A0400E31A040000000000AD
:1060F00000000000E31A0400000000008D450400C9
:10610000000000000000000000000000000000008F
:10611000000000000000000000000000000000007F
:10612000000000000000000000000000000000006F
:10613000000000000000000000000000000000005F
:10614000000000000000000000000000000000004F
:10615000000000000000000000000000000000003F
:10616000000000000000000000000000000000002F
:10617000000000000000000000000000000000001F
:10618000000000000000000000000000000000000F
:1061900000000000000000000000000000000000FF
:1061A00000000000000000000000000000000000EF
:1061B00000000000000000000000000000000000DF
:1061C00000000000000000000000000000000000CF
:1061D00000000000000000000000000000000000BF
:1061E00000000000000000000000000000000000AF
:1061F000000000000000000000000000000000009F
:10620000F1EE103A43F08073E1EE103A704700BFB0
:1062100010B5054C237833B9044B13B10448AFF3E0
:1062200000800123237010BD4064002000000000A6
:10623000DCC7040008B5034B1BB103490348AFF3A7
:10624000008008BD0000000044640020DCC704009A
:10625000154B002B08BF134B9D46A3F5803A002138
:106260008B460F461348144A121A1FF04EF90F4B73
:10627000002B00D098470E4B002B00D098470020F1
:10628000002104000D000D48002802D00C48AFF397
:1062900000801FF0A9F8200029001BF057FC1FF018
:1062A0007DF800BF0000080000000420000000008E
:1062B0000000000040640020E8A40020000000006E
:1062C00000000000014B01221A707047D8650020C1
:1062D000014B00221A707047D865002000B587B0C6
:1062E00068461B4919F046F80A2203A8194916F016
:1062F000A1FB03A9684619F06BF803A819F060F830
:10630000684619F0A9F814481FF04AFF5B201FF0F7
:106310005FFF124816F0DAF91FF042FF9021104893
:106320001FF03EFF5D201FF053FF0E481FF038FFA7
:106330000D481FF035FF00990C481FF031FF0A206F
:106340001FF046FF684619F03BF807B05DF804FB04
:10635000C49E04000C6500204483040048830400AC
:1063600054830400AC83040070AA04005883040022
:1063700070B50D4E0D4D0E4C304614F0A1FC2A4662
:1063800030460C491EF042F920464FF4807114F05B
:10639000F9FE2A46204608491EF038F90748BDE8AC
:1063A000704014F047BD00BF5C6400200060002016
:1063B000FC6400203565020021B70300BC640020A6
:1063C000F0B54D4C4D4D4E4EC5B02046042113F056
:1063D000E7FF1023009320460222832113F0CCFF15
:1063E00000222046012114F011F82046082114F063
:1063F00085FA04A84FF4807200211FF086F8414B03
:10640000414A19681268080E0390C1F307400290D0
:10641000C2F30723C1F30720C9B243F0C003D2B2CD
:10642000CDE9001004A839491FF062FF04F52C776C
:1064300004A9204614F02AFA3846354913F03CF9ED
:106440003846344913F03AF928460B22324914F001
:1064500033FD28460722314914F022FD24A3D3E955
:1064600000232F4904A81FF043FF04A81FF0A0FF3A
:1064700004A9C2B2284614F01BFD0522294928466A
:1064800014F012FD284614F01BFD274814F03CFCC4
:10649000304604F5007415F077F90122304623499F
:1064A00014F0B4FE02F052F82046062111F0EAFC86
:1064B0001F49204611F090FC204611F09DFC20461B
:1064C00011F0C8FC2046012111F010FDF4222046F5
:1064D000202111F007FD20461E2111F001FD20466C
:1064E000002111F083FD45B0F0BD00BFAFF3008087
:1064F0007B14AE47E17A843FB0880020BC64002062
:10650000FC640020A4000010A80000106C830400AC
:10651000C5620200D16202008C83040098830400EB
:10652000A0830400A48304005C640020DD620200F8
:10653000D869002010B5044B044640F8103B11F018
:1065400059FE204610BD00BF14A9040070B5BC4818
:10655000BC4CBD4EBD4D8EB01FF022FE5B201FF027
:1065600037FEBB4816F0B2F81FF01AFE6F21B9488B
:106570001FF016FE5D201FF02BFEB7481FF010FE27
:10658000B6481FF00DFE62782178B5481FF008FE6E
:106590000A201FF01DFEAA481FF002FE5B201FF01C
:1065A00017FEAB4816F092F81FF0FAFD7421A948C7
:1065B0001FF0F6FD5D201FF00BFEA7481FF0F0FD59
:1065C000A6481FF0EDFD607A0490207A0390E079F0
:1065D0000290A079019060792379E278A178009007
:1065E000A0481FF0DDFD0A201FF0F2FD94481FF0C7
:1065F000D7FD5B201FF0ECFD954816F067F81FF003
:10660000CFFD792193481FF0CBFD5D201FF0E0FD09
:1066100091481FF0C5FD91481FF0C2FD607C0490B9
:10662000207C0390E07B0290A07B0190607B237B29
:10663000E27AA17A00908C481FF0B2FD0A201FF088
:10664000C7FD7F481FF0ACFD5B201FF0C1FD8048F7
:1066500016F03CF81FF0A4FD82217E481FF0A0FD3B
:106660005D201FF0B5FD7C481FF09AFD7B481FF0B0
:1066700097FDE07D0290A07D0190607D009094F8F0
:1066800021000C9094F820000B90E07F0A90A07FEE
:106690000990607F0890207F0790E07E0690A07EA2
:1066A0000590607E0490207E237DE27CA17C039097
:1066B0006E481FF075FD0A201FF08AFD60481FF02C
:1066C0006FFD5B201FF084FD614815F0FFFF1FF098
:1066D00067FD83215F481FF063FD5D201FF078FD9B
:1066E0005D481FF05DFD5D481FF05AFD616A60481E
:1066F0001FF056FD0A201FF06BFD51481FF050FDA2
:106700005B201FF065FD524815F0E0FF1FF048FDCB
:106710008C2150481FF044FD5D201FF059FD4E486C
:106720001FF03EFD4D481FF03BFD94F82D000290F8
:1067300094F82C00019094F82B00009094F8370006
:106740000C9094F836000B9094F835000A9094F869
:106750003400099094F83300089094F832000790C0
:1067600094F83100069094F83000059094F82F00CA
:10677000049094F82E0094F82A3094F8292094F884
:10678000281003903B481FF00BFD0A201FF020FD4E
:106790002B481FF005FD5B201FF01AFD2C4815F05B
:1067A00095FF1FF0FDFC95212A481FF0F9FC5D20A4
:1067B0001FF00EFD28481FF0F3FC28481FF0F0FCE6
:1067C00094F83D00029094F83C00019094F83B004E
:1067D000009094F847000C9094F846000B9094F8C1
:1067E00045000A9094F84400099094F843000890FA
:1067F00094F84200079094F84100069094F8400005
:10680000059094F83F00049094F83E0094F83A30D4
:1068100094F8392094F83810039017481FF0C0FC02
:106820000A201FF0D5FC06481FF0BAFC5B201FF0C1
:10683000CFFC074815F04AFF1FF0B2FC96211DE07F
:106840004483040094600020E8830400F083040083
:106850003884040054830400B887040070AA04003C
:10686000488404006084040098840400D0840400F8
:106870003085040044850400A4850400CF481FF03F
:106880008FFC5D201FF0A4FCCD481FF089FCCD4893
:106890001FF086FC94F84810CB48002914BF3146FD
:1068A00029461FF07DFC0A201FF092FCC7481FF00C
:1068B00077FC5B201FF08CFCC54815F007FF1FF02C
:1068C0006FFC9721BD481FF06BFC5D201FF080FC22
:1068D000BB481FF065FCBB481FF062FC94F84910F0
:1068E000BC48002914BF314629461FF059FC0A2034
:1068F0001FF06EFCB5481FF053FC5B201FF068FCD6
:10690000B34815F0E3FE1FF04BFC9821AB481FF095
:1069100047FC5D201FF05CFCA9481FF041FCA94822
:106920001FF03EFCAC4AAD4B94F84A10AC4800292D
:1069300014BF114619461FF033FC0A201FF048FC13
:10694000A2481FF02DFC5B201FF042FCA04815F070
:10695000BDFE1FF025FC992198481FF021FC5D2009
:106960001FF036FC96481FF01BFC96481FF018FCE1
:1069700094F84B109B48002914BF314629461FF05C
:106980000FFC0A201FF024FC90481FF009FC5B203C
:106990001FF01EFC8E4815F099FE1FF001FC9A2195
:1069A00086481FF0FDFB5D201FF012FC84481FF09D
:1069B000F7FB84481FF0F4FBE16C8B481FF0F0FB01
:1069C0000A201FF005FC81481FF0EAFB5B201FF046
:1069D000FFFB7F4815F07AFE1FF0E2FB9B21774812
:1069E0001FF0DEFB5D201FF0F3FB75481FF0D8FBA6
:1069F00074481FF0D5FB94F850107C481FF0D0FB72
:106A00000A201FF0E5FB71481FF0CAFB5B201FF056
:106A1000DFFB6F4815F05AFE1FF0C2FB9C21674850
:106A20001FF0BEFB5D201FF0D3FB65481FF0B8FBD5
:106A300064481FF0B5FB94F851106D481FF0B0FB8F
:106A40000A201FF0C5FB61481FF0AAFB5B201FF066
:106A5000BFFB5F4815F03AFE1FF0A2FB9D2157488F
:106A60001FF09EFB5D201FF0B3FB55481FF098FB05
:106A700054481FF095FB94F852105E481FF090FBAD
:106A80000A201FF0A5FB51481FF08AFB5B201FF076
:106A90009FFB4F4815F01AFE1FF082FB9E214748CE
:106AA0001FF07EFB5D201FF093FB45481FF078FB35
:106AB00044481FF075FB94F853104F481FF070FBCB
:106AC0000A201FF085FB41481FF06AFB5B201FF086
:106AD0007FFB3F4815F0FAFD1FF062FB9F2137480E
:106AE0001FF05EFB5D201FF073FB35481FF058FB65
:106AF00034481FF055FB94F8541040481FF050FBE9
:106B00000A201FF065FB31481FF04AFB5B201FF095
:106B10005FFB2F4815F0DAFD1FF042FBA02127484C
:106B20001FF03EFB5D201FF053FB25481FF038FB94
:106B300024481FF035FB94F855103148002914BF44
:106B4000314629461FF02CFB0A201FF041FB1F484D
:106B50001FF026FB5B201FF03BFB1D4815F0B6FD28
:106B60001FF01EFBA12115481FF01AFB5D201FF02E
:106B70002FFB13481FF014FB12481FF011FB94F871
:106B8000561020481FF00CFB0A201FF021FB0F4875
:106B90001FF006FB5B201FF01BFB0D4815F096FD58
:106BA0001FF0FEFAA22105481FF0FAFA5D201FF03F
:106BB0000FFB03481FF0F4FA26E000BF54830400E3
:106BC000B887040070AA040004860400448304000B
:106BD0003884040010860400FC830400048404004C
:106BE0001C8604002C8604004086040054860400A1
:106BF0006886040078860400848604009486040075
:106C0000A4860400B88604009C481FF0C9FA9C4A78
:106C10009C4B94F857109C48002914BF1146194604
:106C20001FF0BEFA0A201FF0D3FA98481FF0B8FAF6
:106C30005B201FF0CDFA964815F048FD1FF0B0FA22
:106C4000A32194481FF0ACFA5D201FF0C1FA9248CE
:106C50001FF0A6FA89481FF0A3FA94F858108F483D
:106C60001FF09EFA0A201FF0B3FA88481FF098FA26
:106C70005B201FF0ADFA864815F028FD1FF090FA52
:106C8000A42184481FF08CFA5D201FF0A1FA8248ED
:106C90001FF086FA79481FF083FA814A814B94F8F5
:106CA00059108148002914BF114619461FF078FA7F
:106CB0000A201FF08DFA75481FF072FA5B201FF052
:106CC00087FA734815F002FD1FF06AFAA521714892
:106CD0001FF066FA5D201FF07BFA6F481FF060FA24
:106CE00066481FF05DFAE16D70481FF059FA0A20FE
:106CF0001FF06EFA65481FF053FA5B201FF068FA28
:106D0000634815F0E3FC1FF04BFAA62161481FF021
:106D100047FA5D201FF05CFA5F481FF041FA5748C0
:106D20001FF03EFA94F8601061481FF039FA0A200B
:106D30001FF04EFA55481FF033FA5B201FF048FA57
:106D4000534815F0C3FC1FF02BFAA72151481FF040
:106D500027FA5D201FF03CFA4F481FF021FA474800
:106D60001FF01EFA94F8611052481FF019FA0A2019
:106D70001FF02EFA45481FF013FA5B201FF028FA87
:106D8000434815F0A3FC1FF00BFAA82141481FF05F
:106D900007FA5D201FF01CFA3F481FF001FA374840
:106DA0001FF0FEF994F8621043481FF0F9F90A2029
:106DB0001FF00EFA35481FF0F3F95B201FF008FAB8
:106DC000334815F083FC1FF0EBF9A92131481FF07F
:106DD000E7F95D201FF0FCF92F481FF0E1F9274883
:106DE0001FF0DEF994F8631034481FF0D9F90A2037
:106DF0001FF0EEF925481FF0D3F95B201FF0E8F9EA
:106E0000234815F063FC1FF0CBF9AA2121481FF09D
:106E1000C7F95D201FF0DCF91F481FF0C1F91748C2
:106E20001FF0BEF994F8641025481FF0B9F90A2044
:106E30001FF0CEF915481FF0B3F95B201FF0C8F919
:106E4000134815F043FC1FF0ABF9AB2111481FF0BC
:106E5000A7F95D201FF0BCF90F481FF0A1F9074802
:106E60001FF09EF9B4F8661016481FF099F90A2031
:106E70000EB0BDE870401FF0ABB900BF70AA0400AF
:106E80000C84040018840400C886040044830400B1
:106E90003884040054830400B8870400D8860400B2
:106EA000248404002C840400E8860400F486040092
:106EB0000C870400208704003887040048870400FA
:106EC000588704006C870400014902480BF01AB887
:106ED000F0770020DC65002008B5284810F028FD78
:106EE0000022274927480BF067F926480BF074FB6E
:106EF00058B16C22244923480BF0B4FA21480BF016
:106F000027FBBDE80840FFF721BB20481FF048F9E8
:106F10005B201FF05DF91E4815F0D8FB1FF040F90B
:106F200027211C481FF03CF95D201FF051F91A4839
:106F30001FF036F919481FF033F919481FF030F9DE
:106F40000A201FF045F9642018F0A0FA0B480AF057
:106F50007BFC01220A490B480BF02EF900B908BD51
:106F60006C22094907480AF0DBFE06480AF052FF86
:106F70000448BDE808400BF0EBBA00BFF0770020F2
:106F8000A8870400DC65002094600020C083040012
:106F90003884040054830400AC87040070AA040001
:106FA000C483040010B50022474948480BF004F997
:106FB00046480BF011FB002846D06C224449434858
:106FC0000BF050FA41480BF0C3FA6C22414940489B
:106FD0001EF068FA20B90124FFF7B8FA204610BD68
:106FE0003D481FF0DDF85B201FF0F2F83B4815F03C
:106FF0006DFB1FF0D5F8462139481FF0D1F85D2010
:107000001FF0E6F837481FF0CBF837481FF0C8F8F4
:1070100036481FF0C5F80A201FF0DAF8642018F08F
:1070200035FA294932480AF0FBFD01222649274852
:107030000BF0C2F8044600283DD124480BF088FA32
:10704000FFF784FA204610BD23481FF0A9F85B2003
:107050001FF0BEF8214815F039FB1FF0A1F83E21C2
:107060001F481FF09DF85D201FF0B2F81D481FF06B
:1070700097F81D481FF094F81E481FF091F80A2059
:107080001FF0A6F8642018F001FA19480AF0DCFB9A
:1070900001220D490D480BF08FF800288DD06C228D
:1070A0000C490A480AF03CFE08480AF0B3FE0748BB
:1070B0000BF04EFA81E76C22064904480AF030FED4
:1070C00002480AF0A7FEB8E7A8870400DC650020A4
:1070D0000460002094600020C08304003884040011
:1070E00054830400C887040070AA04008087040049
:1070F000F0770020C4830400014B00209B6B1847ED
:1071000050900400044B186820B100231A46194619
:1071100018F09ABA704700BF6867002010B512488F
:107120001FF03EF85B201FF053F8104815F0CEFA20
:107130001FF036F84FF4CE710D481FF031F85D2086
:107140001FF046F80B481FF02BF80B481FF028F8EB
:107150000A481FF025F80A201FF03AF8084B0020D3
:107160009B6BBDE81040184744830400E48704008B
:1071700054830400588A040070AA0400F4870400B1
:107180005090040010B512481FF00AF85B201FF061
:107190001FF8104815F09AFA1FF002F84FF4DB714F
:1071A0000D481EF0FDFF5D201FF012F80B481EF089
:1071B000F7FF0B481EF0F4FF0A481EF0F1FF0A200B
:1071C0001FF006F8084B00209B6BBDE810401847E5
:1071D00044830400E487040054830400748A040098
:1071E00070AA04000C8804005090040010B51248E6
:1071F0001EF0D6FF5B201EF0EBFF104815F066FA7C
:107200001EF0CEFF40F2BF110D481EF0C9FF5D20F9
:107210001EF0DEFF0B481EF0C3FF0B481EF0C0FF40
:107220000A481EF0BDFF0A201EF0D2FF084B0020C6
:107230009B6BBDE81040184744830400E4870400BA
:1072400054830400648A040070AA040000880400C7
:107250005090040010B5044617481EF0A1FF5B20B3
:107260001EF0B6FF154815F031FA1EF099FF4FF4E5
:10727000B27113481EF094FF5D201EF0A9FF114863
:107280001EF08EFF10481EF08BFF104B1048195D4A
:107290001EF086FF0A201EF09BFF0E4A0E4B92F84E
:1072A00056205A710022184611461A7103F0C4F88C
:1072B0000A4B01221A7010BD44830400E4870400C5
:1072C00054830400D08A040070AA0400488A040091
:1072D0002C8A0400946000208860002078690020D7
:1072E00030B5344C83B0002123201BF09FFC94F870
:1072F0004830002B37D003F03FF905462E481EF0EA
:107300004FFF5B201EF064FF2C4815F0DFF91EF0E4
:1073100047FF4FF489712A481EF042FF5D201EF09E
:1073200057FF28481EF03CFF27481EF039FF29462A
:1073300026481EF035FF0A201EF04AFF94F853003D
:10734000002833D1224B01221A7001230093E16CF3
:10735000204A214800231BF063F81F4803B0BDE812
:1073600030401BF071B814481EF01AFF5B201EF06D
:107370002FFF124815F0AAF91EF012FF4FF48B717F
:107380000F481EF00DFF5D201EF022FF0D481EF07D
:1073900007FF0D481EF004FF10481EF001FF0A20F1
:1073A0001EF016FF94F853000028CBD003F09CF891
:1073B000CBE700BF9460002044830400E48704000E
:1073C00054830400B88A040070AA0400F8890400F9
:1073D000786900203D7C020080690020208A04003A
:1073E00030B5044683B066481EF0DAFE5B201EF01E
:1073F000EFFE644815F06AF91EF0D2FE40F231113A
:1074000061481EF0CDFE5D201EF0E2FE5F481EF0DA
:10741000C7FE5F481EF0C4FE207AB4F90630227918
:10742000617900905B481EF0BBFE0A201EF0D0FE82
:107430006379022B06D0032B02D12379012B38D09C
:1074400003B030BD544D2279216854481EF039F8FC
:107450005349544A2B682079087000241470002B7B
:10746000EED047481EF09CFE5B201EF0B1FE454862
:1074700015F02CF91EF094FE40F2571142481EF010
:107480008FFE5D201EF0A4FE40481EF089FE40489D
:107490001EF086FE44481EF083FE0A201EF098FE71
:1074A000286823462246214603B0BDE8304018F044
:1074B000CBB823681878012844D025D30228BFD13F
:1074C00003F012F82E481EF06BFE5B201EF080FECB
:1074D0002C4815F0FBF81EF063FE40F247112A48D5
:1074E0001EF05EFE5D201EF073FE28481EF058FE62
:1074F00027481EF055FE2D481EF052FE0A2003B00C
:10750000BDE830401EF064BE002002F0EDFF1C48D4
:107510001EF046FE5B201EF05BFE1A4815F0D6F802
:107520001EF03EFE40F23D1117481EF039FE5D2070
:107530001EF04EFE15481EF033FE15481EF030FEBC
:107540001B48D9E702F0D0FF0D481EF029FE5B2052
:107550001EF03EFE0B4815F0B9F81EF021FE4FF468
:10756000A17109481EF01CFE5D201EF031FE074887
:107570001EF016FE06481EF013FE0E48BCE700BFC4
:1075800044830400E487040054830400A48A0400B4
:1075900070AA0400488904007C69002070670020FC
:1075A0006D67002000610020E4890400C4890400A4
:1075B00084890400A489040000B51A4883B01EF031
:1075C000EFFD5B201EF004FE174815F07FF81EF05B
:1075D000E7FD4FF4D27115481EF0E2FD5D201EF06C
:1075E000F7FD13481EF0DCFD12481EF0D9FD1248CD
:1075F0001EF0D6FD0A201EF0EBFD0A2017F046FF14
:107600000E4B0F4A18680023137018B11A4619461A
:1076100018F01AF80B4B9B6B0193002003B05DF838
:1076200004EB184744830400E487040054830400F7
:107630004C8A040070AA0400D88704007C690020EA
:10764000006100205090040080B5184D184C194E70
:10765000194FDFF8688095F8593000212320A3B135
:10766000237893B9B36E9847642017F00FFF2378FF
:10767000002BF0D0414604222F2017F02FFD95F863
:10768000593000212320002BEAD11BF0CFFA4FF014
:10769000FF31386818F058FC0128DCD1014623205E
:1076A0001BF0C4FAF36E9847D5E700BF9460002042
:1076B000786900205090040068670020057102007E
:1076C00082B038B9064A074B1178DB6A0648019345
:1076D00002B01847034B9B6B0193002002B0184780
:1076E0007068002050900400746800202DE9F0417B
:1076F00001218AB023201BF059FA002123201BF01E
:1077000095FA03220021012017F02AFFC64C00231E
:107710001A461946206017F097FF00F041FF002835
:1077200040F03F81C14D95F85940002C40F08C80CD
:10773000BF48DFF86483BF49BF4AC04FC04EDFF87F
:107740005CC3C04BC0F800C0C0E90312C0E90167C8
:10775000C361D8F800309847D8F830309847D8F847
:107760001030E86D984795F864E095F863C095F897
:10777000622095F8613095F96010D8F82070009279
:10778000012641F28830CDE901CE089022463046EC
:107790000794CDE9054403940496B84795F864C06E
:1077A000B5F8660095F8633095F8622095F8611099
:1077B000D8F81C70CDF804C00290099630460596A2
:1077C000CDE907440694CDE903440094B8479E48A8
:1077D0001EF0E6FC5B201EF0FBFC9C4814F076FFDC
:1077E0001EF0DEFCCC219A481EF0DAFC5D201EF073
:1077F000EFFC98481EF0D4FC97481EF0D1FC974847
:107800001EF0CEFC0A201EF0E3FC954B95499648ED
:10781000CDE900634FF48052234618F0D9FE0028CA
:1078200000F09E80E96C914A9148009623461AF038
:10783000F7FD8F481AF008FE2046D8F838309847F0
:1078400020460AB0BDE8F0810646A81C02F0F0FA16
:1078500005F10A0002F0F4FA05F1120002F0F8FA5C
:1078600005F1280002F002FB05F1380002F00CFBE4
:10787000686A02F017FB7F4A95F8493095F8520084
:1078800095F84A101370507095F8503095F85100E3
:10789000917095F84B10D3701071517195F8483074
:1078A000009606CA744802F075FB0446002840F0B2
:1078B000998095F8540002F0FBFA002800F011813D
:1078C00061481EF06DFC5B201EF082FC5F4814F0E6
:1078D000FDFE1EF065FCA6215D481EF061FC5D20EA
:1078E0001EF076FC5B481EF05BFC5B481EF058FC0B
:1078F00062481EF055FC0A201EF06AFC584B59499C
:1079000059480125CDE900534FF48052234618F021
:107910005FFE002800F0C4804B481EF041FC5B2055
:107920001EF056FC494814F0D1FE1EF039FCAE2181
:1079300047481EF035FC5D201EF04AFC45481EF00D
:107940002FFC45481EF02CFC4D481EF029FC0A2057
:107950001EF03EFC02F0E6FC4A4B20461D7070E72C
:1079600049481EF01DFC5B201EF032FC374814F025
:10797000ADFE1EF015FCCF2135481EF011FC5D2038
:107980001EF026FC33481EF00BFC33481EF008FCAA
:107990003E481EF005FC0A201EF01AFC6FF00300A2
:1079A0004FE739481EF0FCFB5B201EF011FC274816
:1079B00014F08CFE1EF0F4FB802125481EF0F0FB35
:1079C0005D201EF005FC23481EF0EAFB22481EF055
:1079D000E7FB2F481EF0E4FB0A201EF0F9FB4FF0F6
:1079E000FF302EE728481EF0DBFB5B201EF0F0FB8B
:1079F000164814F06BFE1EF0D3FB992114481EF0BC
:107A0000CFFB5D201EF0E4FB12481EF0C9FB1248BC
:107A10001EF0C6FB1F481EF0C3FB0A201EF0D8FB59
:107A20006FF001000DE700BF686700209460002040
:107A300040660020ED710200F9700200B975020085
:107A400085710200C176020044830400E4870400CB
:107A500054830400988A040070AA04001889040062
:107A600074690020D4880400497602003D7C02003D
:107A7000806900206066002070600020BC880400DF
:107A8000FC8804006C670020C08304002C8904007B
:107A90004488040060880400509004001D710200B6
:107AA00020481EF07DFB5B201EF092FB1E4814F068
:107AB0000DFE1EF075FBA9211C481EF071FB5D2018
:107AC0001EF086FB1A481EF06BFB1A481EF068FB7E
:107AD00019481EF065FB0A201EF07AFB6FF00300C8
:107AE000AFE610481EF05CFB5B201EF071FB0E48F9
:107AF00014F0ECFD1EF054FBA1210C481EF050FBCD
:107B00005D201EF065FB0A481EF04AFB09481EF086
:107B100047FB0A481EF044FB0A201EF059FB6FF099
:107B200002008EE6C0830400E4870400548304004E
:107B3000988A040070AA0400DC880400808804008D
:107B400038B51E4C94F859300BB9012038BD02F0FD
:107B500065FC012820D01A481EF022FB5B201EF095
:107B600037FB184814F0B2FD1EF01AFB4FF4BD713C
:107B700015481EF015FB5D201EF02AFB13481EF071
:107B80000FFB13481EF00CFB12481EF009FB0A20E5
:107B90001EF01EFB002038BD0F4A104B104894F811
:107BA0005710186040F2052510466F2495801C710F
:107BB00002F042FCB0FA80F0400938BD9460002029
:107BC00044830400E487040054830400848A04008E
:107BD00070AA0400188804008860002068660020ED
:107BE00048656C6C30B5104B104C114A1149196046
:107BF0006F20052183B018711170236B98470E4BCD
:107C0000E56B93F8621000230D3100930A22C9B28C
:107C10000320A847012124201BF008F8236C03B09F
:107C2000BDE83040184700BF746800205090040041
:107C30007068002048656C6C9460002008B50121D4
:107C400024201AF0F3FF054A054B106801221A7030
:107C50000021BDE8084017F0B9BF00BF7C690020D3
:107C6000006100202DE9F04B03220021012017F0D4
:107C700077FCDFF80C83DFF80C93C8F800000023D2
:107C800019461A4617F0E0FC012123201AF08EFF56
:107C9000002123201AF0CAFF012124201AF086FFB8
:107CA000012124201AF0C2FF4FF4E131484614F0BC
:107CB000FFFF17F0DFFB41F287360027044600255F
:107CC00019E017F0D7FB8346BBEB04024FF0000C22
:107CD0006CEB0503964277EB03034FF064000FDB78
:107CE00017F0D4FB23201AF0BDFFB0FA80F1490948
:107CF00023201AF09BFF484614F0DCFF0028E0D058
:107D0000012123201AF092FF8E481EF049FA5B20D1
:107D10001EF05EFA8C4814F0D9FC1EF041FA562190
:107D20008A481EF03DFA5D201EF052FA88481EF087
:107D300037FA88481EF034FA87481EF031FA0A20D4
:107D40001EF046FA7F481EF02BFA5B201EF040FA28
:107D50007D4814F0BBFC1EF023FA57217B481EF02F
:107D60001FFA5D201EF034FA79481EF019FA79489E
:107D70001EF016FA79481EF013FA0A201EF028FAAF
:107D800070481EF00DFA5B201EF022FA6E4814F0C7
:107D90009DFC1EF005FA58216C481EF001FA5D208A
:107DA0001EF016FA6A481EF0FBF96A481EF0F8F950
:107DB00069481EF0F5F90A201EF00AFAFFF78CF860
:107DC000FEF7FEFA664B674893F85530002B6DD0EE
:107DD0001EF0E6F95B201EF0FBF95B4814F076FC20
:107DE0001EF0DEF9632159481EF0DAF95D201EF01D
:107DF000EFF957481EF0D4F956481EF0D1F95A4809
:107E00001EF0CEF90A201EF0E3F9FFF76FFC002800
:107E100073D054484C4D4D4C544E1EF0C1F95B206C
:107E20001EF0D6F9284614F051FC1EF0B9F969216C
:107E300020461EF0B5F95D201EF0CAF944481EF038
:107E4000AFF944481EF0ACF949481EF0A9F90A20E0
:107E50001EF0BEF930461EF0A3F95B201EF0B8F903
:107E6000284614F033FC1EF09BF96E2120461EF0CC
:107E700097F95D201EF0ACF935481EF091F93548B0
:107E80001EF08EF93B481EF08BF90A201EF0A0F977
:107E900023201AF0E7FEB0FA80F1490923201AF0F6
:107EA000C5FE41F2883017F0F1FAD3E71EF078F9F9
:107EB0005B201EF08DF9244814F008FC1EF070F9C8
:107EC000772122481EF06CF95D201EF081F92048D0
:107ED0001EF066F91F481EF063F927481EF060F98E
:107EE0000A201EF075F9642017F0D0FAD8F80000C7
:107EF0000A21BDE8F04B18F027B81A481EF050F9D7
:107F00005B201EF065F9104814F0E0FB1EF048F904
:107F100073210E481EF044F95D201EF059F90C48FB
:107F20001EF03EF90B481EF03BF914481EF038F9DC
:107F30000A201EF04DF9D8F800000A21BDE8F04BE8
:107F400018F002B8C08B0400C48B040054830400F2
:107F5000F48A040070AA0400D48B0400FC8B040093
:107F600094600020448304001C8C0400C08304003F
:107F70004C8C0400608C04009C8C0400848C0400F5
:107F80007C6900201C8C00202DE9F047B84C0021B2
:107F900023201AF04BFE20684FF0FF3117F0D4FF7A
:107FA000012801D0BDE8F087014623201AF03EFEEB
:107FB0004FF4FA7017F06AFAAE4B1B78012B3ED0E3
:107FC000C0F0A480022B40F08280AB48AB4D1EF085
:107FD000E7F85B201EF0FCF8A94814F077FB1EF0D0
:107FE000DFF8B621A7481EF0DBF85D201EF0F0F8A0
:107FF000A5481EF0D5F8A5481EF0D2F8A4481EF0FA
:10800000CFF80A201EF0E4F8642017F03FFA294662
:108010006C22A04810F0F0FB29466C229D4810F01D
:1080200081FD95F8553023B19B4B1B780BB9FFF7B9
:108030005DFB20680A21BDE8F04717F085BF8E4838
:108040001EF0AEF85B201EF0C3F88D4814F03EFB26
:108050001EF0A6F89F218B481EF0A2F85D201EF0AE
:10806000B7F889481EF09CF888481EF099F88B48AC
:108070001EF096F80A201EF0ABF8804B93F85930AA
:10808000002B00F09680FFF75BFD002800F0D18008
:1080900079481EF085F85B201EF09AF8784814F0B5
:1080A00015FB1EF07DF8A62176481EF079F85D20BC
:1080B0001EF08EF874481EF073F874481EF070F8C5
:1080C00077481EF06DF80A201EF082F8B1E7754877
:1080D0001EF066F85B201EF07BF8694814F0F6FA93
:1080E0001EF05EF8C42167481EF05AF85D201EF0AD
:1080F0006FF865481EF054F864481EF051F86A485D
:108100001EF04EF80A201EF063F892E75A48674EB8
:108110001EF046F85B201EF05BF8594814F0D6FAC2
:108120001EF03EF8902157481EF03AF85D201EF0F0
:108130004FF855481EF034F854481EF031F85C48AA
:108140001EF02EF80A201EF043F833781F2B51D86A
:10815000584F3B78002B3FF46CAFDFF81CA1DFF8E1
:108160002091DFF82081354650461EF019F85B203B
:108170001EF02EF8484614F0A9FA1EF011F89921C5
:1081800040461EF00DF85D201EF022F83E481EF01D
:1081900007F83E481EF004F815F8011B46481DF08C
:1081A000FFFF0A201EF014F83A78AB1B9A42DBDC82
:1081B0003FE7FFF717FD30481DF0F2FF5B201EF090
:1081C00007F82F4814F082FA1DF0EAFFB1212D487C
:1081D0001DF0E6FF5D201DF0FBFF2B481DF0E0FFCA
:1081E0002A481DF0DDFF35481DF0DAFF0A201DF09A
:1081F000EFFF1EE720481DF0D3FF5B201DF0E8FFD6
:108200001F4814F063FA1DF0CBFF93211D481DF0A9
:10821000C7FF5D201DF0DCFF1B481DF0C1FF1B48A0
:108220001DF0BEFF30461EF043F80A201DF0D0FFBF
:10823000FFE611481DF0B4FF5B201DF0C9FF104898
:1082400014F044FA1DF0ACFFAA210E481DF0A8FF5F
:108250005D201DF0BDFF0C481DF0A2FF0B481DF076
:108260009FFF17481DF09CFF0A201DF0B1FFE0E6BC
:108270007C69002000610020448304009460002099
:10828000C48B040054830400EC8A040070AA040028
:10829000848B0400886900206C670020208B040018
:1082A000308B0400C0830400A08B040070670020A2
:1082B000FC8A04006D6700201C8B0400708B040096
:1082C000548B040010B5054C20461AF0A1F8204646
:1082D000034A0449BDE810401CF098B980690020A9
:1082E00000600020C123040070B5724816461C4689
:1082F0000D461DF055FF5B201DF06AFF6E4814F01F
:10830000E5F91DF04DFF35216C481DF049FF5D205A
:108310001DF05EFF6A481DF043FF6A481DF040FFF4
:1083200069481DF03DFF0A201DF052FF4FF47A709E
:1083300017F0ACF8281D654911F0D0FA30B36C2C59
:1083400025D1328845F2AA539A4241D060481DF0A7
:1083500027FF5B201DF03CFF574814F0B7F91DF0D4
:108360001FFF452155481DF01BFF5D201DF030FF0C
:1083700053481DF015FF53481DF012FF55481DF0DE
:108380000FFF0A20BDE870401DF022BF70BD5048AD
:108390001DF006FF5B201DF01BFF474814F096F907
:1083A0001DF0FEFE3E2145481DF0FAFE5D201DF049
:1083B0000FFF43481DF0F4FE42481DF0F1FE214638
:1083C00045481DF0EDFE0A20BDE870401DF000BFDD
:1083D000424D3146224628461DF073F8FEF7E2FD75
:1083E000294622463E4810F007FA294622463C48D4
:1083F00010F098FB95F8685065BB3A4C2368002B49
:10840000C4D0394B2B4802221A701DF0C9FE5B20E4
:108410001DF0DEFE284814F059F91DF0C1FE602160
:1084200026481DF0BDFE5D201DF0D2FE24481DF043
:10843000B7FE24481DF0B4FE2C481DF0B1FE0A2002
:108440001DF0C6FE2B462A4629462068BDE870402E
:1084500017F0FAB817481DF0A3FE5B201DF0B8FE18
:10846000154814F033F91DF09BFE572113481DF0F9
:1084700097FE5D201DF0ACFE11481DF091FE1148E5
:108480001DF08EFE1A481DF08BFE0A201DF0A0FE86
:108490004FF47A7016F0FAFFBFF34F8F1549164B61
:1084A000CA6802F4E0621343CB60BFF34F8F00BF92
:1084B000FDE700BF44830400D08C04005483040013
:1084C000708D040070AA0400F08C04008C690020F8
:1084D000C08304002C8D0400048D040094600020EF
:1084E000886900207C69002000610020E489040084
:1084F000608D040000ED00E00400FA0530B583B0A3
:108500006C4620464FF2A00111F0A8F90B4D0C4823
:1085100094E8060011F088F920464FF2A10111F00D
:108520009DF994E80600284610F0D2F82846054A3E
:1085300005491CF06BF803B030BD00BF886900200E
:10854000D869002000600020F581030010B5104CB0
:10855000104811F037F920461A2110F00BF91122BA
:108560001146204610F01EF920466D2110F008F942
:1085700020460122084910F01BF920460FF098FF11
:1085800020466C220549BDE8104010F035B900BF07
:1085900088690020D8690020E982020094600020E8
:1085A00030B51E4B26212A2459609C602B202D2299
:1085B0002F252E212C2483B0D8601A615D6199612A
:1085C000DC6101212720252202250024C3E90802BD
:1085D00083F8281083F8291083F82C101D6083F885
:1085E0002A4000F063F800F0F1F802A92A4621F8C9
:1085F000024D4FF4E86000F02DFBBDF8063042F26A
:108600001442934206D044F23440181A18BF012095
:1086100003B030BD204603B030BD00BFE869002084
:10862000054B002202204FF0FF311860C3E908110A
:108630009A6283F82C207047E8690020024A034BB5
:1086400010681B68584070476000001064000010FC
:108650000A4A0B4B1168C1711168090A817151886E
:108660004171D27802711A68C2701A68120A827057
:108670005A884270DB780370704700BF60000010BA
:108680006400001000207047704700BF704700BFB3
:1086900038B5054CA4F1500554F8083D1B68204638
:1086A0009847AC42F8D138BD746A0020704700BFCB
:1086B00070B5214C257882B0ADB163786BB3A378E7
:1086C0006BB3E3786BB323796BB363796BB3A37943
:1086D0006BB3E3796BB3237A23B1637A092513B1C2
:1086E00002B070BD082506464378144831610A4639
:1086F0000121615500EBC50035703BB100230093AB
:1087000042F2107119F08CFE02B070BD009142F27D
:10871000107119F085FE02B070BD0125E3E7022556
:10872000E1E70325DFE70425DDE70525DBE706258F
:10873000D9E70725D7E700BF186A0020246A002080
:1087400010B5064C037804EBC304204619F0B0FEC4
:108750002046BDE8104019F077BE00BF246A002013
:108760000078024B03EBC00019F0A2BE246A00207F
:1087700003780448044A00EBC30042F8231019F0C0
:10878000C3BE00BF246A0020746A002016F072BEC7
:1087900010B5044616F06EFE001B10BD38B5084C2F
:1087A00004F150052046083419F032FEAC42F9D1EC
:1087B000044A05490020BDE838401BF027BF00BF30
:1087C000246A0020006000209186020070B5304CC1
:1087D000304E04F05BFE0025A068357001211AF0D0
:1087E000E5F9A06801211AF021FA2946A0691AF0DA
:1087F000DDF9294660691AF0D9F9606801211AF09B
:10880000D5F9606801211AF011FA94F82C3023BBD5
:10881000206A421C0CD0636A013309D001211AF08E
:10882000C5F90121606A1AF0C1F994F82C500DB312
:10883000012160681AF0BAF9002160681AF0F6F9AF
:108840000A2016F023FE606801211AF0EFF91420C7
:1088500016F01CFE0023337070BD2946206A1AF002
:10886000A5F9606A01211AF0A1F92946606A1AF097
:10887000DDF9DDE7606A431CDAD0236A0133D7D023
:1088800001211AF0D3F92946206A1AF0CFF9CFE76F
:10889000E86900209C6A0020024B014604225869C6
:1088A00016F01CBCE869002010B50B4C0121606873
:1088B0001AF07CF9002160681AF0B8F90A2016F065
:1088C000E5FD606801211AF0B1F9142016F0DEFD13
:1088D000024B00221A7010BDE86900209C6A00203B
:1088E00038B50D4D40F2E93403E016F0CFFD013C00
:1088F00005D0A8691AF0B6F90128F6D038BD0749A5
:1089000007481DF04DFC07481DF04AFC0A20BDE851
:1089100038401DF05DBC00BFE8690020D488040029
:10892000888D0400908D040038B51E4B1E4D002428
:108930001C70FFF7A9FE2146A8681AF077F91B4BB7
:108940001B4893E806001BF01DFBC02118481BF0D4
:1089500083FB214616481BF07FFB15481BF076FB76
:10896000A86801211AF062F940F2E93403E016F038
:108970008DFD013C08D0A8691AF074F90128F6D0E1
:10898000BDE83840FFF782BE0A490B481DF008FCDD
:108990000A481DF005FC0A201DF01AFCBDE838400D
:1089A000FFF774BE9C6A0020E8690020A06A0020DE
:1089B0009C700020D4880400888D0400908D0400F1
:1089C0002DE9F041224E154680460C4604F0C6F8CB
:1089D000B06800211AF02AF91E4B1F4893E80600E0
:1089E0001BF0D0FA41461C481BF036FB5DB1013D3F
:1089F000194F14FA85F5013C14F8011F38461BF095
:108A00002BFBAC42F8D114481BF020FB0121B068CD
:108A10001AF00CF9B8F1840F0BD040F2E93403E0FE
:108A200016F034FD013C06D0B0691AF01BF901289C
:108A3000F6D0BDE8F081094909481DF0B1FB0948AD
:108A40001DF0AEFB0A20BDE8F0411DF0C1BB00BF28
:108A5000E8690020A06A00209C700020D4880400EF
:108A6000888D0400908D0400F8B5234D1646074606
:108A70000C4604F073F8A86800211AF0D7F81F4BD1
:108A80001F4893E806001BF07DFA39461C481BF08E
:108A9000E3FA00211A481BF0DFFA66B1013E184FD5
:108AA00014FA86F6013C002138461BF0D5FA04F88A
:108AB000010FB442F7D112481BF0C8FA0121A8688F
:108AC0001AF0B4F840F2E93403E016F0DFFC013CA0
:108AD00005D0A8691AF0C6F80128F6D0F8BD0949F2
:108AE00009481DF05DFB09481DF05AFB0A20BDE84E
:108AF000F8401DF06DBB00BFE8690020A06A0020AF
:108B00009C700020D4880400888D0400908D04009F
:108B1000F8B5244D074616460C4604F01FF8A86821
:108B200000211AF083F8204B204893E806001BF040
:108B300029FA0D211D481BF08FFA390A1B481BF03A
:108B40008BFAF9B219481BF087FA5EB1013E174F54
:108B500014FA86F6013C14F8011F38461BF07CFA23
:108B6000B442F8D111481BF071FA0121A8681AF03B
:108B70005DF840F2E93403E016F088FC013C05D0D2
:108B8000A8691AF06FF80128F6D0F8BD084909481D
:108B90001DF006FB08481DF003FB0A20BDE8F84065
:108BA0001DF016BBE8690020A06A00209C70002020
:108BB000D4880400888D0400908D040070B51F4D8A
:108BC00004460E4603F0CAFFA86800211AF02EF8EA
:108BD0001B4B1C4893E806001BF0D4F90D211948E3
:108BE0001BF03AFA210A17481BF036FAE1B2154891
:108BF0001BF032FA314613481BF02EFA11481BF0D5
:108C000025FAA86801211AF011F840F2E93403E0CE
:108C100016F03CFC013C05D0A8691AF023F80128A5
:108C2000F6D070BD084909481DF0BAFA08481DF091
:108C3000B7FA0A20BDE870401DF0CABAE869002002
:108C4000A06A00209C700020D4880400888D040055
:108C5000908D0400F8B5274D074616460C4603F0E4
:108C60007DFFA868002119F0E1FF234B234893E81A
:108C700006001BF087F91D2120481BF0EDF9390A89
:108C80001E481BF0E9F9F9B21C481BF0E5F9002178
:108C90001A481BF0E1F966B1013E184F14FA86F646
:108CA000013C002138461BF0D7F904F8010FB4420B
:108CB000F7D112481BF0CAF90121A86819F0B6FFD4
:108CC00040F2E93403E016F0E1FB013C05D0A8696D
:108CD00019F0C8FF0128F6D0F8BD094909481DF070
:108CE0005FFA09481DF05CFA0A20BDE8F8401DF063
:108CF0006FBA00BFE8690020A06A00209C700020C5
:108D0000D4880400888D0400908D040070B5224D35
:108D1000044603F023FFA868002119F087FF1F4BCA
:108D20001F4893E806001BF02DF91D211C481BF07D
:108D300093F9210A1A481BF08FF9E1B218481BF089
:108D40008BF9002116481BF087F9002114481BF00D
:108D500083F9064612481BF079F9A868012119F039
:108D600065FF40F2E93403E016F090FB013C06D0C9
:108D7000A86919F077FF0128F6D0304670BD09497F
:108D800009481DF00DFA09481DF00AFA0A201DF0E5
:108D90001FFA304670BD00BFE8690020A06A0020BD
:108DA0009C700020D4880400888D0400908D0400FD
:108DB000F8B5234D164607460C4603F0CFFEA868CB
:108DC000002119F033FF1F4B1F4893E806001BF0EA
:108DD000D9F80E211C481BF03FF9B6B239461A48A3
:108DE0001BF03AF95EB1013E174F14FA86F6013CCA
:108DF00014F8011F38461BF02FF9B442F8D112487D
:108E00001BF024F90121A86819F010FF40F2E934A1
:108E100003E016F03BFB013C05D0A86919F022FFE6
:108E20000128F6D0F8BD094909481DF0B9F90948EB
:108E30001DF0B6F90A20BDE8F8401DF0C9B900BF21
:108E4000E8690020A06A00209C700020D4880400FB
:108E5000888D0400908D0400F8B5254D1646074610
:108E60000C4603F07BFEA868002119F0DFFE214BC1
:108E7000214893E806001BF085F81E211E481BF0D0
:108E8000EBF839461C481BF0E7F8B6B200211A4847
:108E90001BF0E2F866B1013E174F14FA86F6013C6A
:108EA000002138461BF0D8F804F8010FB442F7D17E
:108EB00011481BF0CBF80121A86819F0B7FE40F269
:108EC000E93403E016F0E2FA013C05D0A86919F094
:108ED000C9FE0128F6D0F8BD084909481DF060F91F
:108EE00008481DF05DF90A20BDE8F8401DF070B992
:108EF000E8690020A06A00209C700020D48804004B
:108F0000888D0400908D0400022104F01FB800BF7A
:108F1000034B1B68022B0CBF02200120704700BFCF
:108F2000E86900202DE9F84FB84C94F82A3053B97D
:108F300094F82C300BB9BDE8F88F606A0121BDE8C8
:108F4000F84F19F073BEB24F3B78002B62D0B14E90
:108F500040F2E93504E016F099FA013D00F01F8275
:108F6000A06919F07FFE0128F5D00021A06819F052
:108F70005DFE96E80600A8481BF004F81D21A648EF
:108F80001BF06AF80921A4481BF066F82021A248CA
:108F90001BF062F80021A0481BF05EF800219E48FB
:108FA0001BF05AF807469C481BF050F80121A068B6
:108FB00019F03CFE40F2E93504E016F067FA013D95
:108FC00000F0E281A06919F04DFE0128F5D0A068FB
:108FD000002119F02BFE96E806008F481AF0D2FF08
:108FE0000D218D481BF038F809218B481BF034F80F
:108FF000202189481BF030F847F00801C9B28648A3
:109000001BF02AF884481BF021F80121A06819F010
:109010000DFE8DE740F2E93504E016F037FA013D28
:1090200000F0C881A06919F01DFE0128F5D0794E25
:10903000A068002119F0FAFD96E8060076481AF0BB
:10904000A1FF1D2174481BF007F8052172481BF091
:1090500003F8802170481AF0FFFF00216E481AF0D3
:10906000FBFF00216C481AF0F7FF83466A481AF0AC
:10907000EDFF0121A06819F0D9FD40F2E93504E0C7
:1090800016F004FA013D00F0C181A06919F0EAFD73
:109090000128F5D00021A06819F0C8FD96E8060067
:1090A0005D481AF06FFF1D215B481AF0D5FF0521BE
:1090B00059481AF0D1FF832157481AF0CDFF0021FB
:1090C00055481AF0C9FF002153481AF0C5FF8246DF
:1090D00051481AF0BBFF0121A06819F0A7FD40F22A
:1090E000E93504E016F0D2F9013D00F08481A06971
:1090F00019F0B8FD0128F5D00021A06819F096FDFF
:1091000096E8060044481AF03DFF1D2142481AF037
:10911000A3FF052140481AF09FFF84213E481AF022
:109120009BFF00213C481AF097FF00213A481AF0B3
:1091300093FF814638481AF089FF0121A06819F091
:1091400075FD40F2E93504E016F0A0F9013D00F0AC
:109150008981A06919F086FD0128F5D00021A06859
:1091600019F064FD96E806002B481AF00BFF1D214C
:1091700029481AF071FF052127481AF06DFF852153
:1091800025481AF069FF002123481AF065FF0021E5
:1091900021481AF061FF80461F481AF057FF01214D
:1091A000A06819F043FD40F2E93504E016F06EF9CD
:1091B000013D00F04C81A06919F054FD0128F5D063
:1091C0000021A06819F032FD96E8060012481AF056
:1091D000D9FE0D2110481AF03FFF05210E481AF064
:1091E0003BFF80210C481AF037FF4BF00801C9B251
:1091F00009481AF031FF08481AF028FF0121A06839
:1092000019F014FD40F2E9350DE000BFE8690020D7
:109210009C6A0020A06A00209C70002016F036F99D
:10922000013D00F00981A06919F01CFD0128F5D06D
:109230000021A06819F0FAFC96E806008F481AF0A1
:10924000A1FE0D218D481AF007FF05218B481AF069
:1092500003FF832189481AF0FFFE0AF0F7018748CF
:109260001AF0FAFE85481AF0F1FE0121A06819F003
:10927000DDFC40F2E93504E016F008F9013D00F0AC
:10928000D080A06919F0EEFC0128F5D00021A0687B
:1092900019F0CCFC96E8060078481AF073FE0D2110
:1092A00076481AF0D9FE052174481AF0D5FE8421BB
:1092B00072481AF0D1FE09F0F70170481AF0CCFE9E
:1092C0006E481AF0C3FE0121A06819F0AFFC40F20D
:1092D000E93504E016F0DAF8013D00F08180A0697C
:1092E00019F0C0FC0128F5D00021A06819F09EFCFF
:1092F00096E8060061481AF045FE0D215F481AF015
:10930000ABFE05215D481AF0A7FE85215B481AF0E7
:10931000A3FE08F0F70159481AF09EFE57481AF0CC
:1093200095FE0121A06819F081FC40F2E93503E0C7
:1093300016F0ACF8013D48D0A06919F093FC012863
:10934000F6D00021A06819F071FC96E806004B48A1
:109350001AF018FE0D2149481AF07EFE09214748EF
:109360001AF07AFE202145481AF076FE062143487D
:109370001AF072FE41481AF069FE0121A06819F046
:1093800055FC01233B70E3E53D493E481CF008FFD6
:109390003D481CF005FF0A201CF01AFF17E638496B
:1093A00038481CF0FDFE38481CF0FAFE0A201CF07C
:1093B0000FFFDAE5324933481CF0F2FE32481CF068
:1093C000EFFE0A201CF004FF31E62D492D481CF069
:1093D000E7FE2D481CF0E4FE0A201CF0F9FEB0E781
:1093E000274928481CF0DCFE27481CF0D9FE0A203B
:1093F0001CF0EEFE78E7224922481CF0D1FE2248FC
:109400001CF0CEFE0A201CF0E3FE75E61C491D4848
:109410001CF0C6FE1C481CF0C3FE0A201CF0D8FE3F
:1094200038E6174917481CF0BBFE17481CF0B8FE79
:109430000A201CF0CDFE29E7114912481CF0B0FEAD
:1094400011481CF0ADFE0A201CF0C2FEF0E60C49EB
:109450000C481CF0A5FE0C481CF0A2FE0A201CF0D3
:10946000B7FEADE6064907481CF09AFE06481CF018
:1094700097FE0A201CF0ACFE70E600BF9C70002036
:10948000D4880400888D0400908D04002DE9F84FE5
:10949000B74C94F82A3053B994F82C300BB9BDE886
:1094A000F88F606A0021BDE8F84F19F0BFBBB14FDB
:1094B0003B78002B61D0B04E40F2E93504E015F066
:1094C000E5FF013D00F01D82A06919F0CBFB0128EA
:1094D000F5D00021A06819F0A9FB96E80600A7487E
:1094E0001AF050FD1D21A5481AF0B6FD0921A34828
:1094F0001AF0B2FD2021A1481AF0AEFD00219F48CC
:109500001AF0AAFD00219D481AF0A6FD07469B48C7
:109510001AF09CFD0121A06819F088FB40F2E935A2
:1095200004E015F0B3FF013D00F0E081A06919F0FF
:1095300099FB0128F5D0A068002119F077FB96E887
:1095400006008E481AF01EFD0D218C481AF084FD8D
:1095500009218A481AF080FD202188481AF07CFDF4
:1095600007F0F70185481AF077FD84481AF06EFD80
:109570000121A06819F05AFB8EE740F2E93504E0BA
:1095800015F084FF013D00F0C781A06919F06AFB66
:109590000128F5D0784EA068002119F047FB96E825
:1095A000060076481AF0EEFC1D2174481AF054FDAE
:1095B000052172481AF050FD802170481AF04CFDC8
:1095C00000216E481AF048FD00216C481AF044FD55
:1095D00083466A481AF03AFD0121A06819F026FB7B
:1095E00040F2E93504E015F051FF013D00F0C08183
:1095F000A06919F037FB0128F5D00021A06819F007
:1096000015FB96E806005D481AF0BCFC1D215B487E
:109610001AF022FD052159481AF01EFD83215748F2
:109620001AF01AFD002155481AF016FD0021534882
:109630001AF012FD824651481AF008FD0121A06877
:1096400019F0F4FA40F2E93504E015F01FFF013D8E
:1096500000F08381A06919F005FB0128F5D00021F5
:10966000A06819F0E3FA96E8060044481AF08AFC6C
:109670001D2142481AF0F0FC052140481AF0ECFC8C
:1096800084213E481AF0E8FC00213C481AF0E4FC32
:1096900000213A481AF0E0FC814638481AF0D6FC1E
:1096A0000121A06819F0C2FA40F2E93504E015F092
:1096B000EDFE013D00F08881A06919F0D3FA012880
:1096C000F5D00021A06819F0B1FA96E806002B4801
:1096D0001AF058FC1D2129481AF0BEFC0521274824
:1096E0001AF0BAFC852125481AF0B6FC002123485F
:1096F0001AF0B2FC002121481AF0AEFC80461F4847
:109700001AF0A4FC0121A06819F090FA40F2E935A2
:1097100004E015F0BBFE013D00F04B81A06919F09B
:10972000A1FA0128F5D00021A06819F07FFA96E887
:10973000060012481AF026FC0D2110481AF08CFC85
:1097400005210E481AF088FC80210C481AF084FC90
:109750004BF00801C9B209481AF07EFC07481AF01C
:1097600075FC0121A06819F061FA40F2E9350CE0BE
:10977000E86900209C6A0020A06A00209C700020FC
:1097800015F084FE013D00F00981A06919F06AFA24
:109790000128F5D00021A06819F048FA96E80600E3
:1097A0008F481AF0EFFB0D218D481AF055FC05216A
:1097B0008B481AF051FC832189481AF04DFC0AF0BD
:1097C000F70187481AF048FC85481AF03FFC012150
:1097D000A06819F02BFA40F2E93504E015F056FEC6
:1097E000013D00F0D080A06919F03CFA0128F5D0C5
:1097F0000021A06819F01AFA96E8060078481AF0D5
:10980000C1FB0D2176481AF027FC052174481AF097
:1098100023FC842172481AF01FFC09F0F7017048FC
:109820001AF01AFC6E481AF011FC0121A06819F018
:10983000FDF940F2E93504E015F028FE013D00F0A5
:109840008180A06919F00EFA0128F5D00021A068E6
:1098500019F0ECF996E8060061481AF093FB0D2127
:109860005F481AF0F9FB05215D481AF0F5FB8521E8
:109870005B481AF0F1FB08F0F70159481AF0ECFBCD
:1098800057481AF0E3FB0121A06819F0CFF940F224
:10989000E93503E015F0FAFD013D48D0A06919F063
:1098A000E1F90128F6D00021A06819F0BFF996E887
:1098B00006004B481AF066FB0D2149481AF0CCFB14
:1098C000092147481AF0C8FB202145481AF0C4FB7B
:1098D000062143481AF0C0FB41481AF0B7FB0121AA
:1098E000A06819F0A3F901233B70E5E53D493E4826
:1098F0001CF056FC3D481CF053FC0A201CF068FC90
:1099000019E6384938481CF04BFC38481CF048FC34
:109910000A201CF05DFCDCE5324933481CF040FCB9
:1099200032481CF03DFC0A201CF052FC32E62D4966
:109930002D481CF035FC2D481CF032FC0A201CF090
:1099400047FCB0E7274928481CF02AFC27481CF0B0
:1099500027FC0A201CF03CFC78E7224922481CF036
:109960001FFC22481CF01CFC0A201CF031FC76E68F
:109970001C491D481CF014FC1C481CF011FC0A205A
:109980001CF026FC39E6174917481CF009FC17485B
:109990001CF006FC0A201CF01BFC29E711491248A8
:1099A0001CF0FEFB11481CF0FBFB0A201CF010FC15
:1099B000F0E60C490C481CF0F3FB0C481CF0F0FBE3
:1099C0000A201CF005FCAEE6064907481CF0E8FB3F
:1099D00006481CF0E5FB0A201CF0FAFB71E600BF0C
:1099E0009C700020D4880400888D0400908D0400B1
:1099F00038B50A4C94F82C5075B9606A431C0BD0EA
:109A0000236A013308D0012119F010F92946206A90
:109A1000BDE8384019F00AB938BD00BFE869002038
:109A200010B5094C94F82C1069B9606A431C0AD02F
:109A3000236A013307D019F0F9F8206A0121BDE843
:109A4000104019F0F3B810BDE8690020034B044A38
:109A50001A600121002259711A717047A06A002012
:109A600080841E00704700BF43783BBB2DE9F04166
:109A7000B14C25788AB025B1B4F846300133A4F84A
:109A80004630437BBBB1C378E02B18D0027B8168A2
:109A90008DF8193000248DF81820A84B8C541B68C1
:109AA000027C8DF81C208168C289DB680591ADF8C5
:109AB0001A2005A898470AB0BDE8F081704735B96B
:109AC000037B042B7DD09E48FEF74AFEF3E78268B5
:109AD00013786370072BEED8DFE803F0403D396E52
:109AE000562F0E04037B032B00F0D180072B00F0D0
:109AF000E18001236370DEE7924B1B788DF80C3018
:109B00000025022302A8A570A4F8465025708DF800
:109B1000083005F01BFF8C4B187806F003FB8B4BCD
:109B20008DF814500FCB0AAD05E90F0005A806F01B
:109B3000FBF82378002BBED1C5E70AA8012300F863
:109B4000143D06F0F1F82378002BB4D1BBE70123D4
:109B5000A3706370AFE702232371ACE7794A1278F0
:109B60008DF818200023022205A8A4F8463023709F
:109B70008DF8142005F0EAFE734B187806F0D2FA3F
:109B80002378002B97D19EE7037B2371F22B4FF0B4
:109B900004011D4628BFF225012B61718BD96C4948
:109BA000012300E08268D25C0133DCB20132AC42B6
:109BB00001F8012FF6D37EE700220123A270637023
:109BC00079E783681A78012A7FF47DAF5A78012AF1
:109BD0007FF479AF9A78012A7FF475AFDE78012E91
:109BE0007FF471AF0AAF4FF0020807F8208D3846B6
:109BF000A570A4F8465084F8485084F8495084F879
:109C00004A502670667084F8048005F0BFFD4D4B05
:109C10009DF80C201A7038468DF808808DF80C607D
:109C200005F094FE284606F07DFA4A494448FEF7BE
:109C30003FFD41F288314248FEF79AFD94F84830E2
:109C4000002B62D040F2035194F8492094F84A3036
:109C500084F848506670A180A271E37101A920794F
:109C600005F0E8FC002841D000238DF8143007935C
:109C7000ADF820308DF822303148FEF761FD05A89F
:109C800006F06EF92378002B7FF415AF1BE7022353
:109C90008DF814305178937805A843EA0123ADF884
:109CA000183006F041F8237801226270002B7FF40F
:109CB00002AF08E703238DF814305178937843EA14
:109CC0000123ADF818301379D07851791B0243EA9B
:109CD00000430B43642101FB03F3079393798DF851
:109CE000203005A806F020F82378DDE7A378227954
:109CF0009BB9E02016498DF81430ADF820208DF87E
:109D000022308DF818000791B6E76378012B23D035
:109D1000042BA3D101236370A0E70125E0200C49A7
:109D2000ADF820204FF400638DF814508DF8180022
:109D30000791ADF822309FE7D06A0020A86A002082
:109D40001C6B0020CC6A00205A6B0020AC6A0020FB
:109D5000D56A0020699D0200B4F84630A371022242
:109D60001B126371227179E710B52E4C94F84830BC
:109D700086B013B3002340F2035094F8491094F8CE
:109D80004A2084F848300123A080A171E2716370F9
:109D9000032001A905F04EFCE8B100238DF808303E
:109DA0000493ADF814308DF816301F48FEF7C8FC48
:109DB00002A806F0D5F806B010BD6378012B28D0B4
:109DC000042B08BF0123207908BF637001A905F0A7
:109DD00031FC0028E1D1A37822795BB9E020134956
:109DE0008DF80830ADF814208DF816308DF80C0081
:109DF0000491DAE70124E0200C49ADF814204FF477
:109E000000638DF808408DF80C000491ADF8163011
:109E1000CBE7B4F84630A37102201B1263712071A6
:109E2000B7E700BFD06A00201C6B0020D56A002075
:109E30000246024B0068516803C370473C6B002028
:109E40000246024B0068516803C37047346B002020
:109E500010B40346044C59689A680068DB680FC464
:109E60005DF8044B704700BF0461002010B4034646
:109E7000044C59689A680068DB680FC45DF8044BAD
:109E8000704700BF2461002010B40346044C596899
:109E90009A680068DB680FC45DF8044B704700BF28
:109EA00014610020014B1860704700BF506B002008
:109EB00030B5431E85B00024082BCDE9014403943E
:109EC00009D8831E0546072B4ED8DFE803F0484427
:109ED0003F3B36321151284928481CF061F9284887
:109EE0001CF05EF90A201CF073F9204605B030BD65
:109EF0004FF47F43ADF80A3001A90622214800F053
:109F0000C3FB01A90622204800F0BEFB062201A9DE
:109F10001E4800F0B9FB184918481CF041F92946C1
:109F20001B481CF03DF90A201CF052F9012005B035
:109F300030BDFF23ADF80A30DEE74FF47F43ADF8C4
:109F40000830D9E7FF23ADF80830D5E74FF47F4359
:109F5000ADF80630D0E7FF23ADF80630CCE74FF47C
:109F60007F43ADF80430C7E7FF23ADF80430C3E703
:109F7000FF23ADF80C30BFE7A08F0400888D0400EC
:109F8000A48F0400606B00206C6B0020786B0020B5
:109F9000B48F04002DE9F043C5B00EAC84E8060090
:109FA000024694E80300C14CC14D2260C14AC24E32
:109FB0001060C1F307202B70918030709DF93980BB
:109FC0009DF83071002B00F0E880BC48BC49C57991
:109FD0004378027890F805E090F804C090F8069075
:109FE0000595C57880780090CDE9015CCDE903E95D
:109FF00024A81CF07DF9B348B34990F807C0437812
:10A000000278857990F805E0CDF814C090F804C086
:10A010000495C5788078CDE902CECDE9000514A875
:10A020001CF066F9A948AA49C57890F802C043789F
:10A0300002780195CDF800C090F80FC0CDF834C07B
:10A0400090F80EC0CDF830C090F80DC0CDF82CC0FF
:10A0500090F80CC0CDF828C090F80BC0CDF824C003
:10A0600090F80AC0CDF820C090F809C0CDF81CC007
:10A0700090F808C0CDF818C090F807C0CDF814C00B
:10A0800090F806C0CDF810C034AD90F805E090F817
:10A0900004C0CDF808C02846CDF80CE01CF028F923
:10A0A0008C498D481CF07CF88C4B00951A688C48C4
:10A0B00024AB14A91CF074F80A201CF089F823685A
:10A0C00088491C68884A8948894B0C60894C106013
:10A0D0005360104694603B46082205F049F9054656
:10A0E000002840F0DF80844C9DF8383023712046F2
:10A0F0004FF0020984F8009005F028FC1423204654
:10A10000237084F8048005F021FC15232046237079
:10A1100084F8048005F01AFC16229DF83C30227069
:10A120002046237105F012FC07229DF83A30227078
:10A130002046237105F00AFC20462771257005F0A2
:10A1400005FC44AC307805F0EDFF4FF47F43CDF8CB
:10A150004650CDF84A50ADF84E5024F8CC3D06227A
:10A160002146664800F090FA21460622644800F035
:10A170008BFA06222146634800F086FA6249564867
:10A180001CF00EF8494661481CF00AF80A201CF041
:10A190001FF8284645B0BDE8F0834A484A49C579CA
:10A1A0004378027890F805E090F804C090F80690A3
:10A1B0000595C57880780090CDE9015CCDE903E98B
:10A1C00014A81CF095F85248524990F803C08578BD
:10A1D00043780278CDE9005CC57B90F80EC00D9500
:10A1E000457BCDF830C090F80CC00B95C57ACDF802
:10A1F00028C090F80AC00995457ACDF820C090F89B
:10A2000008C00795C579CDF818C090F806E0059507
:10A2100090F805C00579CDF810E024A8CDE9025CDE
:10A220001CF066F83C483D49C57890F802C0437878
:10A2300002780195CDF800C090F80FC0CDF834C079
:10A2400090F80EC0CDF830C090F80DC0CDF82CC0FD
:10A2500090F80CC0CDF828C090F80BC0CDF824C001
:10A2600090F80AC0CDF820C090F809C0CDF81CC005
:10A2700090F808C0CDF818C090F807C0CDF814C009
:10A2800090F806C0CDF810C034AD90F805E090F815
:10A2900004C0CDF808C02846CDF80CE01CF028F822
:10A2A0001F49FEE64FF0FF3074E700BFA86A0020A8
:10A2B0005B6B0020546B00205A6B0020346B002035
:10A2C000C08D04003C6B0020F08D04000461002070
:10A2D000208E0400788E0400888D0400506B0020CE
:10A2E000808E0400BC6A0020C06A0020659A0200CB
:10A2F000699A0200DDA30200446B0020606B00201D
:10A300006C6B0020786B0020A08F0400B48F0400D9
:10A3100024610020988E040014610020F08E040057
:10A32000488F040030B52249224A234B234DD87868
:10A33000234B244C2D7887B0CDE9021204938DF87D
:10A34000140006AB13E90F0084E80F0000238DF81A
:10A35000043045BB1C4C032320462370656005F088
:10A36000F5FA1A4B04221B6822702046636005F040
:10A37000EDFA0522164B22702046636005F0E6FADE
:10A380000622144B22702046636005F0DFFA012399
:10A3900020462370237105F0D9FA0F4B1B681B6907
:10A3A000984707B030BD01A805F0BEFC07B030BD2E
:10A3B0003C6B0020346B0020546B00205B6B002052
:10A3C00004610020AC6A0020446B0020506B002028
:10A3D0002461002014610020A86A0020037883B162
:10A3E000012B0DD1427852B90A4A117839B182F85D
:10A3F0004830037A82F84930437A82F84A3070470D
:10A40000704743781BB9044B1B681B691847FFF75B
:10A4100089BF00BFD06A0020A86A002000B585B0BF
:10A4200004A8012300F80C3D05F0B0F99DF80800E0
:10A4300005B05DF804FB00BF254B1B7853BB30B55E
:10A4400087B00D46044601A9007905F0F3F820BB5A
:10A45000204B607993F901302179226895B1082465
:10A460008DF80C00ADF8141004928DF816308DF8AC
:10A470001740012506A800F8105D05F071FDC8B968
:10A4800007B030BD8DF80C00ADF8141004928DF8B3
:10A490001630EFE74FF0FF3070470F490F481BF0C1
:10A4A0007FFE0F481BF07CFE0A201BF091FE4FF050
:10A4B000FF30E5E7084909481BF072FE09481BF028
:10A4C0006FFE0A201BF084FE4FF0FF30D8E700BF7C
:10A4D000D06A0020546B0020A08F0400888D0400F7
:10A4E0004C8F0400788F040070B584B004AD002454
:10A4F00005F80C4D0646284605F048F99DF8083049
:10A50000B34213D0012E14D022D3022E1BD11C1C17
:10A5100018BF0124284664428DF8086005F016FA39
:10A5200088B9144B1B6830465B699847204604B0D5
:10A5300070BD012BFAD028468DF8086005F006FAA8
:10A5400004460028EDD04FF0FF34204604B070BD23
:10A550001BB91C46204604B070BD28468DF8084043
:10A5600005F0F4F904460028EDD1024B1B685B6945
:10A570009847DBE7A86A002005F0E8BD014B002200
:10A580005A7070471C6B0020884204DB9042CCBF9D
:10A590000020012070470020704700BF0B09B3EB7B
:10A5A000121F12D8914210D21BB210B4012230F8FF
:10A5B000134001F00F0102FA01F124EA010120F831
:10A5C00013105DF8044B104670470020704700BF21
:10A5D000002856D0914255D2531E5B1A51FA83F38C
:10A5E00030B4841C00EB410104EB4304002031F83B
:10A5F000025B05F00103AA0748BF01336A0744BFA5
:10A600000133DBB22A0744BF0133DBB2EA0644BFA1
:10A610000133DBB2AA0644BF0133DBB26A0644BF92
:10A620005A1CD3B22A0644BF5A1CD3B2EA0544BF0F
:10A630005A1CD3B2AA0544BF5A1CD3B26A0544BF00
:10A640005A1CD3B22A0544BF5A1CD3B2EA0444BFF1
:10A650005A1CD3B2AA0444BF5A1CD3B26A0444BFE2
:10A660005A1CD3B22A0405D403448C42D8B2BED1BA
:10A6700030BC70475A1C83188C42D8B2B7D130BC5A
:10A680007047704700207047C0B3B9B3B2B32DE92B
:10A69000F041031D0C1DA04238BF99422FD30D2A53
:10A6A0002DD9C1F340050DB10B880380A2EB050E37
:10A6B0006C005FFA8EFE0E194FEA5E080444002318
:10A6C0000133DFB256F804CB44F804CBB845F7D8D1
:10A6D0000EF0FE031D449E45EDB20DD02BB20135A8
:10A6E000EDB231F8134020F81340AA4204D92DB23C
:10A6F00031F8153020F81530BDE8F0817047531E51
:10A70000DBB201EB43030238023931F8022F20F8A3
:10A71000022F9942F9D1EFE700B94A608A60704789
:10A720002DE9F047002B4DD0013BDBB202F11007C1
:10A730000D460646144607EB03174FF0FF384FF05F
:10A74000000946B1E5B9E560A8461034A742F8D142
:10A750004046BDE8F0876068FEF71AF8824645BBC0
:10A760006068FEF715F8E368834206D9002BECD049
:10A770001B1A984528BF9846E7E7C4F80C90E4E711
:10A78000D4E9020AFEF704F88245F6D9D4F80CA001
:10A79000BAF1000FD9D0A068FDF7FAFFAAEB0000CC
:10A7A0004045D2D2D4E90208FDF7F2FFA8EB000839
:10A7B000CBE7A068FDF7ECFF8245D1D2A068FDF79A
:10A7C000E7FFD0E74FF0FF384046BDE8F08700BF15
:10A7D0000378032B01D00020704790F9013003F07B
:10A7E0000F02C3F303138A704B7083788B80C27897
:10A7F00043EA02238B800379C3F3021203F00F03B1
:10A80000CA700B70052070472DE9F04F054640785F
:10A8100095F902E095F9039085B0A0B9B5F9026009
:10A8200095F905E095F9069040F60F74A6420AD016
:10A8300095F907A04C4681F800E0147083F800A059
:10A8400005B0BDE8F08F287895F904A000285DD008
:10A8500095F91040744514DD00F0FD0095F919409C
:10A8600095F918604C4504DC4E45B8BF00F0FB007C
:10A870004C460728DFD1BAF1000FDCD195F907A0CB
:10A88000D9E795F911407445E6DB2C7A0094002C49
:10A89000E2D0EE686F69CDF8049000240292039331
:10A8A000A346A1463A4633465FFA89F40BEB4B06C2
:10A8B00033F8148002EB8606002448FA04F717F0F8
:10A8C000010F04F101040CD096F808C04CF30317F3
:10A8D0000CF00F0C7FB2E64507F00F0701DBBE4519
:10A8E00010DD102C06F10C06E7D10BF1100B009CCB
:10A8F0005FFA8BFB5C4509F10109D5D8DDE90192CE
:10A90000039BA9E7DDE90192039BA7E74C4692E789
:10A91000012370B503FA00F00E461AF0ADF90446B3
:10A9200030460D461AF098F902460B462046294655
:10A930001AF036FB0022034B1AF008FA41EC100B18
:10A9400070BD00BF00408F402DE9F84F57EC106BF1
:10A950000446043840001D4692468B461AF08CF996
:10A9600032463B461AF0F2F980464FEA4B008946E0
:10A970001AF072F902460B46404649461AF030F882
:10A9800032463B461AF00CFB41EC100B19F044FE2A
:10A9900051EC100B1AF09CFC844238BF04462C602A
:10A9A00000221A4B304639461AF0D0F9804620462C
:10A9B00089461AF051F9002204460D46144B3046E0
:10A9C00039461AF0C3F902460B46204629461AF0CA
:10A9D000BDF902460B464046494619F0FFFF0446C2
:10A9E00050460D461AF038F90B46024629462046D5
:10A9F00019F0F4FF41EC100B19F00EFE51EC100BA6
:10AA00001AF03EFC0A9B1860BDE8F88F0000104069
:10AA10000000E03F400007EE900A00B5F8EE677ACC
:10AA200083B030EE670A30EE600A19F08DFFFDEE5C
:10AA3000C07ACDED017A9DF9040003B05DF804FB06
:10AA4000D0E9002170B4C37A447A03EB430302EBEC
:10AA5000830300255B7A1B01CA18CB5AD560817A23
:10AA60004CB9C568124CA5420ED86424A9B9017A24
:10AA700099B970BC70470029FBD00169013B01FB0B
:10AA800003F3D36070BC70470A4E42F21074B542B3
:10AA900098BF4FF47A740029E9D0A34238BF234607
:10AAA0000169013B01FB03F3D36070BC704700BF39
:10AAB0007FEE36007F3F5C0208B50378202B4AD832
:10AAC000DFE803F01149494949494949491D2249EB
:10AAD000292C2F3235383B494511471B274349491B
:10AAE000494919191300082008BD90F9010090B3D5
:10AAF000013840B208BD022008BD184808BD90F9D1
:10AB00000130174AD05C08BD90F90130154AD05C7D
:10AB100008BD482008BD40F6B83008BD4FF47A7033
:10AB200008BD4FF4FA6008BD41F2883008BD41F21B
:10AB3000707008BD4FF4804008BD4FF47A710A4828
:10AB400002F0ECFB00F5FA6008BD084808BD0848B3
:10AB500008BD084808BD002008BD00BF606B00208C
:10AB60002C9004003C90040018FCFFFF846B002034
:10AB7000A07008376C6B002010B40378074C0849AC
:10AB80004268407803EB430304EB83035DF8044B16
:10AB90005B7A01EB0311FFF7BFBD00BF846B0020A0
:10ABA000386100200128F8B50ED021D302281ED12B
:10ABB000334934480622FFF767FD062231493248FF
:10ABC000BDE8F840FFF760BD2E4C2D492046062217
:10ABD000FFF75AFD2C4B20681E68D4E90112D3E917
:10ABE000015430402940C3E9000122409A60F8BD79
:10ABF000264D274A2B4605F54074302000211A6067
:10AC0000187259720C3302F54332A34202F5A07256
:10AC1000F5D11B4A1F4B204CC5F80033FF234FF0E2
:10AC2000FF309360C5F81843442304F5C304C2E918
:10AC300000001A4F1A481B4EA5F808331146A5F814
:10AC40001433194AA5F82033A5F82C33A5F8383366
:10AC5000A5F84433A5F85033A5F85C3304F5205427
:10AC6000124BC5F83023C5F83C03C5F80C73C5F882
:10AC7000246306220348C5F84843C5F854339AE7CD
:10AC8000606B00206C6B0020786B0020846B0020D0
:10AC90006001C835C0AFD235C0830336C019EB356B
:10ACA000C0C14C36C0ED1B36C0573436C0957D361A
:10ACB000043908B51A290FD8DFE801F0101A242E3C
:10ACC0002E0E0E0E0E0E0E0E0E0E0E0E0E0E0E0E84
:10ACD0000E0E0E0E0E0E3800002008BD04220021BC
:10ACE00090F90000FFF750FC003018BF012008BDAC
:10ACF0000522002190F90000FFF746FC003018BF44
:10AD0000012008BD0D22082190F90000FFF73CFC4E
:10AD1000003018BF012008BD0E22002190F900006C
:10AD2000FFF732FC003018BF012008BD0078012871
:10AD300094BF0020012008BD704700BF70B50422F9
:10AD4000054600210068FFF743FC01280AD02C7952
:10AD500054B1012C06D129680E480622FFF794FC55
:10AD6000204670BD002070BD0B4C2968204606228D
:10AD7000FFF78AFC094B2068D3E90061D4E901524E
:10AD80009C68304029402240C3E900019A600120BC
:10AD900070BD00BF606B00206C6B0020786B0020E2
:10ADA000F0B44478476890F9085090F909601F6042
:10ADB00054B175B143683F2B12D95F2B03D903F00F
:10ADC0001F03012B12D000260D7020461670F0BC18
:10ADD00070472C461D6020460D701670F0BC704701
:10ADE00000240D7020461670F0BC7047013D6DB216
:10ADF000002DE8D104784CB1054BFF244FF0FF3013
:10AE00009C60C3E900002E462C46DDE72646DBE7C2
:10AE10006C6B00200D282DE9F043A8BF0D20134EC8
:10AE2000134F56F820505870BD4283B01C468846D8
:10AE3000914618D00F4B9D420CBF022500250E4BAA
:10AE400056F82010A570185CFFF762FD04F10C03A2
:10AE500000934946404604F108030322FFF774FDBE
:10AE600003B0BDE8F0830125E9E700BFD88F0400F7
:10AE700090D0030020A10700C88F04002DE9F04303
:10AE8000214E90F90170B36845688BB0044688463E
:10AE90009847002834D1E37C33B925781B4A1C4BF2
:10AEA00005F0070502FB05351A4A336912F90790C8
:10AEB00028469847A37CA1780993002501234FF0E9
:10AEC000080C08931846CDE90655CDE90455CDE99F
:10AED0000255CDE9005C4A46F569A847637C63B931
:10AEE0000D4BD95DF36D0D31C9B20120984701209A
:10AEF00088F800700BB0BDE8F083084BD95DF1E72E
:10AF000000200BB0BDE8F08350900400C02709007A
:10AF1000A0700837C88F04002C9004003C900400F7
:10AF20002DE9F04F05463B4895F9013095F902703F
:10AF3000C656042B8DB08946924640D1022FDFF8C9
:10AF4000F0B0B8BF02270223DFED330A0B93B3EE54
:10AF50000E0A3846FFF75EFD0A902878DFF8D480A5
:10AF600000EB4000D8F810205BF820009047012447
:10AF700000224FF0080C40F6B830CDE90720CDE9AB
:10AF80000522CDE90324CDF808C00A9900960B9B51
:10AF9000D8F8206001942046B047D8F85C30297B6F
:10AFA00020469847D8F82830297B20469847CAF889
:10AFB0000000204689F800700DB0BDE8F08F2B78B6
:10AFC000DFF86CB01549164803EB43030BEB830322
:10AFD00004225B7A01EB0313002193F90240FFF78F
:10AFE000F7FA312810D9A742B8BF27460D4B95F97B
:10AFF00001100D4A53F82130934209D00B4A934275
:10B0000018BF0023A0D19EE7052FB8BF0527EDE7A5
:10B01000012399E7C88F0400000000003861002078
:10B020006C6B0020D88F040090D0030020A1070093
:10B03000846B0020509004002DE9F04F8DB002AFDA
:10B04000002406468B4692463846062255497C60C7
:10B050000294BC609946FFF717FB2546A0460724DB
:10B060003379AB4269461BD930682844FFF7B0FBFF
:10B070002B18A8B19DF80340062CDDB256D00CABBE
:10B08000072C03EB44035BD0052C60D0BDF80420F3
:10B0900023F8282C3379AB424FF007046946E3D8F4
:10B0A0009DF90120032A54DDB1799DF802008DF845
:10B0B00016208DF815109DF80020F1798DF81700F5
:10B0C000307A8DF814408DF81820747A8DF81910A4
:10B0D00048224FF480618DF81A0033488DF81B40E8
:10B0E0008DF81C200E24ADF824100A906B460DF14B
:10B0F00002020DF1010105A8ADF82C400897FFF7F9
:10B1000083FB072804462FD09DF801308BF80030D0
:10B110009DF802209DF800308AF8002089F8003060
:10B12000169B20461D700DB0BDE8F08F4FF0FF3329
:10B13000BDF80420ADF81020CDE9023307248FE7D5
:10B14000BDF80430ADF81030CDE9028888E7062458
:10B1500086E7042200213846FFF73AFA01289DF9D4
:10B16000012098BF06249FE70E4E3946304606223E
:10B17000FFF78AFA0D4BB6F800C01A885F8871880D
:10B18000988802EA0C020F401A80B188DA88B6F873
:10B1900006C05F80084002EA0C02B1689880DA803D
:10B1A0009960B1E76C6B0020846B0020786B002005
:10B1B00070B5224B44685B6A05462046984720B12B
:10B1C0001F4B204A2344934224D9042406260D22EF
:10B1D000082195F90000FFF7D7F90722002818BFCA
:10B1E0003446052195F90000FFF7CEF901280ED06D
:10B1F00095F900300D2B0ADC95F90100032200219E
:10B20000FFF7C2F908B904F0FB04204670BD04F052
:10B21000FD04F1E702F1DF4202F5C81202F24572C5
:10B22000A2FB03020849920C01FB1233002B0BBF57
:10B230000524042407260626C9E700BF5090040011
:10B24000608FF7C840164000C027090000207047F3
:10B250004FF0FF30704700BF00207047084A094B8D
:10B26000FF2111810288A3FB02135B0803EBC303D8
:10B27000D31A9BB2002B0CBF04200020704700BFE4
:10B280006C6B0020398EE33870B586B04178037856
:10B290008DF80C10D0E90141094A8DF80D30094BA9
:10B2A0008678C5788DF80E6001A88DF80F50CDE92D
:10B2B0000441CDE90123FFF7C3FB06B070BD00BF19
:10B2C000846B0020386100202DE9F04F99B0554D76
:10B2D0000591039200214822044606A81F461AF051
:10B2E00014F9284604220021FFF772F900287DD0C6
:10B2F00094F90830032B02DD2B7A002B72D0D4E9AD
:10B300000050FDF745FA85425ED800263E600123D5
:10B31000454AA17A607ADFF818A1424FFFF700FA98
:10B3200094F908B004900296B146D046F3B2019366
:10B3300000243A882241331912F0010F04EB440132
:10B3400003EB430324D058F821C058460AEB83028C
:10B350008D00BCF1000F1BD0117A41F3031241F3B1
:10B36000030152B249B2FFF70FF908EB050378B1B8
:10B370002D4A5B7A02EB031318AADB684A44F3B93F
:10B38000019B09F1010923445FFA89F902F8483C5D
:10B390000134102CCDD11036502E07F1020708F1E0
:10B3A000C008C3D1B9F1000F26D1029B93B9039B0A
:10B3B0001A46029B1360184619B0BDE8F08F029B35
:10B3C0000133DBB20293E3E7D4E90040FDF7E0F993
:10B3D000231A0493039B1A46049B1360012019B09F
:10B3E000BDE8F08F114B1B892B8188E704220F49A0
:10B3F0002846FFF749F97BE709F1FF31002001F00A
:10B400008DFF18AB1844059B10F8481C197040229A
:10B410000448FFF7C3F8039A00230120136019B012
:10B42000BDE8F08F786B0020386100206C6B002045
:10B43000846B0020F0B590F9012090F90250037858
:10B44000042A83B0044630D01B4E1C491C4803EB31
:10B45000430306EB830304225B7A01EB0313002111
:10B4600093F90270FFF7B4F8312818D8052D237826
:10B470002846B8BF052003EB4303DFED120A56F858
:10B480002350B3EE0E0AFFF7C5FA0F4BA2895B6C8F
:10B4900001930146284603B0BDE8F0401847BD427D
:10B4A00028462378B8BF3846E5E7022D2846024EE5
:10B4B000B8BF0220DFE700BF846B002038610020A6
:10B4C0006C6B00200000000050900400034B03EB65
:10B4D0008101885620EAE070C0B2704718900400DD
:10B4E00001207047034B93F82930002B14BF3520FF
:10B4F00003207047E8690020002001F0D9BB00BF9D
:10B50000194B10B51860194801F0D4FA002001F069
:10B51000CFFB174B93F82B3013BB012001F05AFCE3
:10B520000021084601F088FE0421002001F00EFDF4
:10B5300000234FF6FF711A46084601F057FC0D4AEA
:10B540000D4C0E490123104653706370FDF7B0F89F
:10B5500020460B49FDF7ACF80A4B00221A7010BDCB
:10B56000002001F037FCDBE78C70002035B70200CB
:10B57000E8690020747000200070002005B7020008
:10B580001DB70200E46E00200B4B10B518600B488D
:10B590000B4C01F0D5FA0B4A0B49012310465370AE
:10B5A0006370FDF785F820460849FDF781F8084BE0
:10B5B00000221A7010BD00BF8C70002035B7020049
:10B5C000007000207470002005B702001DB7020053
:10B5D000E46E002008B501F0B5FA0438C0B20328C3
:10B5E00096BF024B0020185C08BD00BF4C900400C1
:10B5F00001F02EBCFDF78ABBFDF7E0BA38B50C466A
:10B600000546FEF70DFA40F2012100231A460846CE
:10B6100001F0ECFB01F094FC0C4B01280C480CBF32
:10B6200083F8274083F8204001F054FD2146284646
:10B63000002201F0D5FA074B07481968FDF798F882
:10B640000548BDE83840FDF77BB800BF1870002002
:10B6500030700020707000207470002008B54FF02A
:10B66000040001F011FB0220BDE8084013F00EBFFA
:10B6700038B50D4600234FF6FF7104461A460846BA
:10B6800001F0B4FB29462046BDE8384001F05ABB22
:10B6900001F0B0BD08B5FEF7ABF900234FF4C0715F
:10B6A0001A46084601F0A2FBBDE8084001F068BB5D
:10B6B00038B50D46144601F0CBFB2846FDF724FCB7
:10B6C00001F06AFB204619F0D7FA084B084C00221B
:10B6D00019F03CFB19F0FCFD01462046FDF748F847
:10B6E0002046BDE83840FDF72BB800BF00408F4032
:10B6F0007470002008B501F0ADFD08BDFDF708BA73
:10B70000FDF7A8BA08B5FCF7BFFF034B01221A707A
:10B71000BDE80840FCF7BABF6D70002008B5FCF723
:10B72000B3FF034B01221A70BDE80840FCF7AEBF1F
:10B730006C70002008B5FCF7A7FF034B01221A70BC
:10B74000BDE80840FCF7A2BFE46E002070B58C4C49
:10B75000237882B023BB8B4B1A789AB98A4B1A781C
:10B760000AB902B070BD002288481A70FCF7F8FFD1
:10B77000874B1B68002BF4D05B68002BF1D09847F7
:10B7800002B070BD002283481A70FCF7E9FF804BBD
:10B790001B68002BE2D0DB68002BDFD09847DDE789
:10B7A000FCF772FF00232370FCF770FF01F040FBF1
:10B7B00004464FF6FF7001F09BFDE1074BD4A20752
:10B7C00066D4260656D4A50524D4600705D5704B4B
:10B7D0001B6813B15B6903B19847A106BBD56E49DD
:10B7E0006E481AF0DDFC6E481AF0DAFC0A201AF0F6
:10B7F000EFFC6848FCF7B4FF6A4B1B78002B00F0A5
:10B80000A680634B1B68002BA5D0DB68002BA2D061
:10B810009847A0E7604961481AF0C2FC62481AF0F4
:10B82000BFFC0A201AF0D4FC01F08CF904287CD06B
:10B8300001F088F90528C8D15648FCF791FF01208E
:10B8400001F086F9524B1B68002BC6D0DA68002A3B
:10B8500079D09047B9E74D48FCF782FF012001F00D
:10B8600077F94B4B1B68002BA9D01B68002BA6D087
:10B870009847A4E7012001F06BF9454B1B68002BAA
:10B88000A1D0DB69002B9ED0C4F3002098479AE733
:10B890004048FCF765FF434B1D78002D5BD0FF222D
:10B8A0000021424819F031FE630622D53A493B484F
:10B8B0001AF076FC3E481AF073FC0A201AF088FC55
:10B8C000FF220021394819F020FEFF220DF1070167
:10B8D000364801F057F9374801F0CAFC2C4B1B6879
:10B8E000002B3FF46EAF1B69002B3FF46AAF984703
:10B8F00067E7304D2D48FF220DF1070101F042F9B5
:10B90000284601F0B5FC224B1B68002B3FF459AFD1
:10B910009E68002E3FF455AF95F90D3095F90C2037
:10B920009DF807102148B0474BE71848FCF718FF6F
:10B93000012001F00DF9164B1B68002B3FF44DAFB1
:10B940005A68002A85D162077FF547AF42E7012098
:10B9500001F0FEF855E7012001F0FAF8294640F61B
:10B960000210FDF72BF940F64410FDF7CFF940F037
:10B970000201C9B240F64410FDF720F98FE700BF7D
:10B98000E46E00206C7000206D7000207470002048
:10B990008C70002000700020C8900400888D040086
:10B9A0001C910400FB6F0020F4900400FC6E00204A
:10B9B000D0900400E86E002001280A480AD0C37F16
:10B9C000012B00D07047084B80F8201018301970F8
:10B9D00001F080BB044B80F827101830197001F07B
:10B9E00079BB00BF187000204861002000000000F3
:10B9F0002DE9F04F884683B0002879D0012803D084
:10BA0000002003B0BDE8F08FDFF8A8A1644A9AF8DF
:10BA100051309AF850B0BAF82400043BCBF10C0135
:10BA200003EB430301EB430302EBC303D3E90045FC
:10BA300019F022F90646CBEB48009AF828809AF8CC
:10BA40002630073000EB8800012B4FEA800008BF4A
:10BA500014380F4619F010F99AF853308046894689
:10BA60000BB1ABF1020B4FEA8B0019F005F902465E
:10BA70000B464046494619F093FA41EC100B18F07A
:10BA8000CBFD9AF8520053EC102B00F00300043069
:10BA9000CDE9002319F0F0F8DDE9002319F056F99B
:10BAA000002200238046894619F0D6FB002864D086
:10BAB0003046394600223B4B18F092FF02460B46B7
:10BAC0004046494618F08CFF22462B4619F03EF9B5
:10BAD00031A3D3E9002318F083FF41EC100B18F0D9
